{"abi":[{"anonymous":false,"inputs":[{"indexed":false,"internalType":"string","name":"s","type":"string"}],"name":"Verified","type":"event"},{"inputs":[{"components":[{"components":[{"internalType":"uint256","name":"X","type":"uint256"},{"internalType":"uint256","name":"Y","type":"uint256"}],"internalType":"struct Pairing.G1Point","name":"a","type":"tuple"},{"components":[{"internalType":"uint256[2]","name":"X","type":"uint256[2]"},{"internalType":"uint256[2]","name":"Y","type":"uint256[2]"}],"internalType":"struct Pairing.G2Point","name":"b","type":"tuple"},{"components":[{"internalType":"uint256","name":"X","type":"uint256"},{"internalType":"uint256","name":"Y","type":"uint256"}],"internalType":"struct Pairing.G1Point","name":"c","type":"tuple"}],"internalType":"struct Verifier.Proof","name":"proof","type":"tuple"},{"internalType":"uint256[1]","name":"input","type":"uint256[1]"}],"name":"verifyTx","outputs":[{"internalType":"bool","name":"r","type":"bool"}],"stateMutability":"nonpayable","type":"function"}],"devdoc":{"methods":{}},"evm":{"assembly":"    /* \"Verifier.sol\":20802:24314  contract Verifier {... */\n  mstore(0x40, 0x80)\n  callvalue\n  dup1\n  iszero\n  tag_1\n  jumpi\n  0x00\n  dup1\n  revert\ntag_1:\n  pop\n  dataSize(sub_0)\n  dup1\n  dataOffset(sub_0)\n  0x00\n  codecopy\n  0x00\n  return\nstop\n\nsub_0: assembly {\n        /* \"Verifier.sol\":20802:24314  contract Verifier {... */\n      mstore(0x40, 0x80)\n      callvalue\n      dup1\n      iszero\n      tag_1\n      jumpi\n      0x00\n      dup1\n      revert\n    tag_1:\n      pop\n      jumpi(tag_2, lt(calldatasize, 0x04))\n      shr(0xe0, calldataload(0x00))\n      dup1\n      0xf48d7729\n      eq\n      tag_3\n      jumpi\n    tag_2:\n      0x00\n      dup1\n      revert\n        /* \"Verifier.sol\":23838:24312  function verifyTx(... */\n    tag_3:\n      tag_4\n      0x04\n      dup1\n      calldatasize\n      sub\n      dup2\n      add\n      swap1\n      tag_5\n      swap2\n      swap1\n      jump(tag_6)\n    tag_5:\n      tag_7\n      jump\t// in\n    tag_4:\n      mload(0x40)\n      tag_8\n      swap2\n      swap1\n      jump(tag_9)\n    tag_8:\n      mload(0x40)\n      dup1\n      swap2\n      sub\n      swap1\n      return\n    tag_7:\n        /* \"Verifier.sol\":23948:23954  bool r */\n      0x00\n        /* \"Verifier.sol\":23966:23991  uint[] memory inputValues */\n      0x60\n        /* \"Verifier.sol\":24005:24017  input.length */\n      0x01\n        /* \"Verifier.sol\":23994:24018  new uint[](input.length) */\n      0xffffffffffffffff\n      dup2\n      gt\n      dup1\n      iszero\n      tag_11\n      jumpi\n      0x00\n      dup1\n      revert\n    tag_11:\n      pop\n      mload(0x40)\n      swap1\n      dup1\n      dup3\n      mstore\n      dup1\n      0x20\n      mul\n      0x20\n      add\n      dup3\n      add\n      0x40\n      mstore\n      dup1\n      iszero\n      tag_12\n      jumpi\n      dup2\n      0x20\n      add\n      0x20\n      dup3\n      mul\n      dup1\n      calldatasize\n      dup4\n      calldatacopy\n      dup1\n      dup3\n      add\n      swap2\n      pop\n      pop\n      swap1\n      pop\n    tag_12:\n      pop\n        /* \"Verifier.sol\":23966:24018  uint[] memory inputValues = new uint[](input.length) */\n      swap1\n      pop\n        /* \"Verifier.sol\":24032:24038  uint i */\n      0x00\n        /* \"Verifier.sol\":24041:24042  0 */\n      dup1\n        /* \"Verifier.sol\":24032:24042  uint i = 0 */\n      swap1\n      pop\n        /* \"Verifier.sol\":24028:24116  for(uint i = 0; i < input.length; i++){... */\n    tag_13:\n        /* \"Verifier.sol\":24048:24060  input.length */\n      0x01\n        /* \"Verifier.sol\":24044:24045  i */\n      dup2\n        /* \"Verifier.sol\":24044:24060  i < input.length */\n      lt\n        /* \"Verifier.sol\":24028:24116  for(uint i = 0; i < input.length; i++){... */\n      iszero\n      tag_14\n      jumpi\n        /* \"Verifier.sol\":24097:24102  input */\n      dup4\n        /* \"Verifier.sol\":24103:24104  i */\n      dup2\n        /* \"Verifier.sol\":24097:24105  input[i] */\n      0x01\n      dup2\n      lt\n      tag_16\n      jumpi\n      invalid\n    tag_16:\n      0x20\n      mul\n      add\n      mload\n        /* \"Verifier.sol\":24080:24091  inputValues */\n      dup3\n        /* \"Verifier.sol\":24092:24093  i */\n      dup3\n        /* \"Verifier.sol\":24080:24094  inputValues[i] */\n      dup2\n      mload\n      dup2\n      lt\n      tag_17\n      jumpi\n      invalid\n    tag_17:\n      0x20\n      mul\n      0x20\n      add\n      add\n        /* \"Verifier.sol\":24080:24105  inputValues[i] = input[i] */\n      dup2\n      dup2\n      mstore\n      pop\n      pop\n        /* \"Verifier.sol\":24062:24065  i++ */\n      dup1\n      dup1\n      0x01\n      add\n      swap2\n      pop\n      pop\n        /* \"Verifier.sol\":24028:24116  for(uint i = 0; i < input.length; i++){... */\n      jump(tag_13)\n    tag_14:\n      pop\n        /* \"Verifier.sol\":24159:24160  0 */\n      0x00\n        /* \"Verifier.sol\":24129:24155  verify(inputValues, proof) */\n      tag_18\n        /* \"Verifier.sol\":24136:24147  inputValues */\n      dup3\n        /* \"Verifier.sol\":24149:24154  proof */\n      dup7\n        /* \"Verifier.sol\":24129:24135  verify */\n      tag_19\n        /* \"Verifier.sol\":24129:24155  verify(inputValues, proof) */\n      jump\t// in\n    tag_18:\n        /* \"Verifier.sol\":24129:24160  verify(inputValues, proof) == 0 */\n      eq\n        /* \"Verifier.sol\":24125:24306  if (verify(inputValues, proof) == 0) {... */\n      iszero\n      tag_20\n      jumpi\n        /* \"Verifier.sol\":24181:24227  Verified(\"Transaction successfully verified.\") */\n      0x3f3cfdb26fb5f9f1786ab4f1a1f9cd4c0b5e726cbdfc26e495261731aad44e39\n      mload(0x40)\n      tag_21\n      swap1\n      jump(tag_22)\n    tag_21:\n      mload(0x40)\n      dup1\n      swap2\n      sub\n      swap1\n      log1\n        /* \"Verifier.sol\":24248:24252  true */\n      0x01\n        /* \"Verifier.sol\":24241:24252  return true */\n      swap2\n      pop\n      pop\n      jump(tag_10)\n        /* \"Verifier.sol\":24125:24306  if (verify(inputValues, proof) == 0) {... */\n    tag_20:\n        /* \"Verifier.sol\":24290:24295  false */\n      0x00\n        /* \"Verifier.sol\":24283:24295  return false */\n      swap2\n      pop\n      pop\n        /* \"Verifier.sol\":23838:24312  function verifyTx(... */\n    tag_10:\n      swap3\n      swap2\n      pop\n      pop\n      jump\t// out\n        /* \"Verifier.sol\":22894:23803  function verify(uint[] memory input, Proof memory proof) internal returns (uint) {... */\n    tag_19:\n        /* \"Verifier.sol\":22969:22973  uint */\n      0x00\n        /* \"Verifier.sol\":22985:23011  uint256 snark_scalar_field */\n      dup1\n        /* \"Verifier.sol\":23014:23091  21888242871839275222246405745257275088548364400416034343698204186575808495617 */\n      0x30644e72e131a029b85045b68181585d2833e84879b9709143e1f593f0000001\n        /* \"Verifier.sol\":22985:23091  uint256 snark_scalar_field = 21888242871839275222246405745257275088548364400416034343698204186575808495617 */\n      swap1\n      pop\n        /* \"Verifier.sol\":23101:23123  VerifyingKey memory vk */\n      tag_25\n      tag_26\n      jump\t// in\n    tag_25:\n        /* \"Verifier.sol\":23126:23140  verifyingKey() */\n      tag_27\n        /* \"Verifier.sol\":23126:23138  verifyingKey */\n      tag_28\n        /* \"Verifier.sol\":23126:23140  verifyingKey() */\n      jump\t// in\n    tag_27:\n        /* \"Verifier.sol\":23101:23140  VerifyingKey memory vk = verifyingKey() */\n      swap1\n      pop\n        /* \"Verifier.sol\":23178:23180  vk */\n      dup1\n        /* \"Verifier.sol\":23178:23190  vk.gamma_abc */\n      0x80\n      add\n      mload\n        /* \"Verifier.sol\":23178:23197  vk.gamma_abc.length */\n      mload\n        /* \"Verifier.sol\":23173:23174  1 */\n      0x01\n        /* \"Verifier.sol\":23158:23163  input */\n      dup7\n        /* \"Verifier.sol\":23158:23170  input.length */\n      mload\n        /* \"Verifier.sol\":23158:23174  input.length + 1 */\n      add\n        /* \"Verifier.sol\":23158:23197  input.length + 1 == vk.gamma_abc.length */\n      eq\n        /* \"Verifier.sol\":23150:23198  require(input.length + 1 == vk.gamma_abc.length) */\n      tag_29\n      jumpi\n      0x00\n      dup1\n      revert\n    tag_29:\n        /* \"Verifier.sol\":23255:23282  Pairing.G1Point memory vk_x */\n      tag_30\n      tag_31\n      jump\t// in\n    tag_30:\n        /* \"Verifier.sol\":23285:23306  Pairing.G1Point(0, 0) */\n      mload(0x40)\n      dup1\n      0x40\n      add\n      0x40\n      mstore\n      dup1\n        /* \"Verifier.sol\":23301:23302  0 */\n      0x00\n        /* \"Verifier.sol\":23285:23306  Pairing.G1Point(0, 0) */\n      dup2\n      mstore\n      0x20\n      add\n        /* \"Verifier.sol\":23304:23305  0 */\n      0x00\n        /* \"Verifier.sol\":23285:23306  Pairing.G1Point(0, 0) */\n      dup2\n      mstore\n      pop\n        /* \"Verifier.sol\":23255:23306  Pairing.G1Point memory vk_x = Pairing.G1Point(0, 0) */\n      swap1\n      pop\n        /* \"Verifier.sol\":23321:23327  uint i */\n      0x00\n        /* \"Verifier.sol\":23330:23331  0 */\n      dup1\n        /* \"Verifier.sol\":23321:23331  uint i = 0 */\n      swap1\n      pop\n        /* \"Verifier.sol\":23316:23513  for (uint i = 0; i < input.length; i++) {... */\n    tag_32:\n        /* \"Verifier.sol\":23337:23342  input */\n      dup7\n        /* \"Verifier.sol\":23337:23349  input.length */\n      mload\n        /* \"Verifier.sol\":23333:23334  i */\n      dup2\n        /* \"Verifier.sol\":23333:23349  i < input.length */\n      lt\n        /* \"Verifier.sol\":23316:23513  for (uint i = 0; i < input.length; i++) {... */\n      iszero\n      tag_33\n      jumpi\n        /* \"Verifier.sol\":23389:23407  snark_scalar_field */\n      dup4\n        /* \"Verifier.sol\":23378:23383  input */\n      dup8\n        /* \"Verifier.sol\":23384:23385  i */\n      dup3\n        /* \"Verifier.sol\":23378:23386  input[i] */\n      dup2\n      mload\n      dup2\n      lt\n      tag_35\n      jumpi\n      invalid\n    tag_35:\n      0x20\n      mul\n      0x20\n      add\n      add\n      mload\n        /* \"Verifier.sol\":23378:23407  input[i] < snark_scalar_field */\n      lt\n        /* \"Verifier.sol\":23370:23408  require(input[i] < snark_scalar_field) */\n      tag_36\n      jumpi\n      0x00\n      dup1\n      revert\n    tag_36:\n        /* \"Verifier.sol\":23429:23502  Pairing.addition(vk_x, Pairing.scalar_mul(vk.gamma_abc[i + 1], input[i])) */\n      tag_37\n        /* \"Verifier.sol\":23446:23450  vk_x */\n      dup3\n        /* \"Verifier.sol\":23452:23501  Pairing.scalar_mul(vk.gamma_abc[i + 1], input[i]) */\n      tag_38\n        /* \"Verifier.sol\":23471:23473  vk */\n      dup6\n        /* \"Verifier.sol\":23471:23483  vk.gamma_abc */\n      0x80\n      add\n      mload\n        /* \"Verifier.sol\":23488:23489  1 */\n      0x01\n        /* \"Verifier.sol\":23484:23485  i */\n      dup6\n        /* \"Verifier.sol\":23484:23489  i + 1 */\n      add\n        /* \"Verifier.sol\":23471:23490  vk.gamma_abc[i + 1] */\n      dup2\n      mload\n      dup2\n      lt\n      tag_39\n      jumpi\n      invalid\n    tag_39:\n      0x20\n      mul\n      0x20\n      add\n      add\n      mload\n        /* \"Verifier.sol\":23492:23497  input */\n      dup11\n        /* \"Verifier.sol\":23498:23499  i */\n      dup6\n        /* \"Verifier.sol\":23492:23500  input[i] */\n      dup2\n      mload\n      dup2\n      lt\n      tag_40\n      jumpi\n      invalid\n    tag_40:\n      0x20\n      mul\n      0x20\n      add\n      add\n      mload\n        /* \"Verifier.sol\":23452:23470  Pairing.scalar_mul */\n      tag_41\n        /* \"Verifier.sol\":23452:23501  Pairing.scalar_mul(vk.gamma_abc[i + 1], input[i]) */\n      jump\t// in\n    tag_38:\n        /* \"Verifier.sol\":23429:23445  Pairing.addition */\n      tag_42\n        /* \"Verifier.sol\":23429:23502  Pairing.addition(vk_x, Pairing.scalar_mul(vk.gamma_abc[i + 1], input[i])) */\n      jump\t// in\n    tag_37:\n        /* \"Verifier.sol\":23422:23502  vk_x = Pairing.addition(vk_x, Pairing.scalar_mul(vk.gamma_abc[i + 1], input[i])) */\n      swap2\n      pop\n        /* \"Verifier.sol\":23351:23354  i++ */\n      dup1\n      dup1\n      0x01\n      add\n      swap2\n      pop\n      pop\n        /* \"Verifier.sol\":23316:23513  for (uint i = 0; i < input.length; i++) {... */\n      jump(tag_32)\n    tag_33:\n      pop\n        /* \"Verifier.sol\":23529:23568  Pairing.addition(vk_x, vk.gamma_abc[0]) */\n      tag_43\n        /* \"Verifier.sol\":23546:23550  vk_x */\n      dup2\n        /* \"Verifier.sol\":23552:23554  vk */\n      dup4\n        /* \"Verifier.sol\":23552:23564  vk.gamma_abc */\n      0x80\n      add\n      mload\n        /* \"Verifier.sol\":23565:23566  0 */\n      0x00\n        /* \"Verifier.sol\":23552:23567  vk.gamma_abc[0] */\n      dup2\n      mload\n      dup2\n      lt\n      tag_44\n      jumpi\n      invalid\n    tag_44:\n      0x20\n      mul\n      0x20\n      add\n      add\n      mload\n        /* \"Verifier.sol\":23529:23545  Pairing.addition */\n      tag_42\n        /* \"Verifier.sol\":23529:23568  Pairing.addition(vk_x, vk.gamma_abc[0]) */\n      jump\t// in\n    tag_43:\n        /* \"Verifier.sol\":23522:23568  vk_x = Pairing.addition(vk_x, vk.gamma_abc[0]) */\n      swap1\n      pop\n        /* \"Verifier.sol\":23582:23768  Pairing.pairingProd4(... */\n      tag_45\n        /* \"Verifier.sol\":23617:23622  proof */\n      dup6\n        /* \"Verifier.sol\":23617:23624  proof.a */\n      0x00\n      add\n      mload\n        /* \"Verifier.sol\":23626:23631  proof */\n      dup7\n        /* \"Verifier.sol\":23626:23633  proof.b */\n      0x20\n      add\n      mload\n        /* \"Verifier.sol\":23648:23668  Pairing.negate(vk_x) */\n      tag_46\n        /* \"Verifier.sol\":23663:23667  vk_x */\n      dup5\n        /* \"Verifier.sol\":23648:23662  Pairing.negate */\n      tag_47\n        /* \"Verifier.sol\":23648:23668  Pairing.negate(vk_x) */\n      jump\t// in\n    tag_46:\n        /* \"Verifier.sol\":23670:23672  vk */\n      dup6\n        /* \"Verifier.sol\":23670:23678  vk.gamma */\n      0x40\n      add\n      mload\n        /* \"Verifier.sol\":23693:23716  Pairing.negate(proof.c) */\n      tag_48\n        /* \"Verifier.sol\":23708:23713  proof */\n      dup11\n        /* \"Verifier.sol\":23708:23715  proof.c */\n      0x40\n      add\n      mload\n        /* \"Verifier.sol\":23693:23707  Pairing.negate */\n      tag_47\n        /* \"Verifier.sol\":23693:23716  Pairing.negate(proof.c) */\n      jump\t// in\n    tag_48:\n        /* \"Verifier.sol\":23718:23720  vk */\n      dup8\n        /* \"Verifier.sol\":23718:23726  vk.delta */\n      0x60\n      add\n      mload\n        /* \"Verifier.sol\":23741:23761  Pairing.negate(vk.a) */\n      tag_49\n        /* \"Verifier.sol\":23756:23758  vk */\n      dup10\n        /* \"Verifier.sol\":23756:23760  vk.a */\n      0x00\n      add\n      mload\n        /* \"Verifier.sol\":23741:23755  Pairing.negate */\n      tag_47\n        /* \"Verifier.sol\":23741:23761  Pairing.negate(vk.a) */\n      jump\t// in\n    tag_49:\n        /* \"Verifier.sol\":23763:23765  vk */\n      dup10\n        /* \"Verifier.sol\":23763:23767  vk.b */\n      0x20\n      add\n      mload\n        /* \"Verifier.sol\":23582:23602  Pairing.pairingProd4 */\n      tag_50\n        /* \"Verifier.sol\":23582:23768  Pairing.pairingProd4(... */\n      jump\t// in\n    tag_45:\n        /* \"Verifier.sol\":23578:23778  if(!Pairing.pairingProd4(... */\n      tag_51\n      jumpi\n        /* \"Verifier.sol\":23777:23778  1 */\n      0x01\n        /* \"Verifier.sol\":23770:23778  return 1 */\n      swap4\n      pop\n      pop\n      pop\n      pop\n      jump(tag_24)\n        /* \"Verifier.sol\":23578:23778  if(!Pairing.pairingProd4(... */\n    tag_51:\n        /* \"Verifier.sol\":23795:23796  0 */\n      0x00\n        /* \"Verifier.sol\":23788:23796  return 0 */\n      swap4\n      pop\n      pop\n      pop\n      pop\n        /* \"Verifier.sol\":22894:23803  function verify(uint[] memory input, Proof memory proof) internal returns (uint) {... */\n    tag_24:\n      swap3\n      swap2\n      pop\n      pop\n      jump\t// out\n        /* \"Verifier.sol\":21142:22889  function verifyingKey() pure internal returns (VerifyingKey memory vk) {... */\n    tag_28:\n        /* \"Verifier.sol\":21189:21211  VerifyingKey memory vk */\n      tag_52\n      tag_26\n      jump\t// in\n    tag_52:\n        /* \"Verifier.sol\":21230:21399  Pairing.G1Point(uint256(0x1936c240636390dc823e3a728e94b208eb53c6756d81da57ec3425e05d43ac10), uint256(0x2d70ff78e8216bf29d58923a686d9738278b8ce2fd822e197c85b09286d15566)) */\n      mload(0x40)\n      dup1\n      0x40\n      add\n      0x40\n      mstore\n      dup1\n        /* \"Verifier.sol\":21254:21320  0x1936c240636390dc823e3a728e94b208eb53c6756d81da57ec3425e05d43ac10 */\n      0x1936c240636390dc823e3a728e94b208eb53c6756d81da57ec3425e05d43ac10\n        /* \"Verifier.sol\":21230:21399  Pairing.G1Point(uint256(0x1936c240636390dc823e3a728e94b208eb53c6756d81da57ec3425e05d43ac10), uint256(0x2d70ff78e8216bf29d58923a686d9738278b8ce2fd822e197c85b09286d15566)) */\n      dup2\n      mstore\n      0x20\n      add\n        /* \"Verifier.sol\":21331:21397  0x2d70ff78e8216bf29d58923a686d9738278b8ce2fd822e197c85b09286d15566 */\n      0x2d70ff78e8216bf29d58923a686d9738278b8ce2fd822e197c85b09286d15566\n        /* \"Verifier.sol\":21230:21399  Pairing.G1Point(uint256(0x1936c240636390dc823e3a728e94b208eb53c6756d81da57ec3425e05d43ac10), uint256(0x2d70ff78e8216bf29d58923a686d9738278b8ce2fd822e197c85b09286d15566)) */\n      dup2\n      mstore\n      pop\n        /* \"Verifier.sol\":21223:21225  vk */\n      dup2\n        /* \"Verifier.sol\":21223:21227  vk.a */\n      0x00\n      add\n        /* \"Verifier.sol\":21223:21399  vk.a = Pairing.G1Point(uint256(0x1936c240636390dc823e3a728e94b208eb53c6756d81da57ec3425e05d43ac10), uint256(0x2d70ff78e8216bf29d58923a686d9738278b8ce2fd822e197c85b09286d15566)) */\n      dup2\n      swap1\n      mstore\n      pop\n        /* \"Verifier.sol\":21416:21743  Pairing.G2Point([uint256(0x2b4daf047abe2e7f0b311118c1b963b63695dc0d769cea78849604434de055bf), uint256(0x29c13ecb6f33dbc4b3b8a02e2e255511ce4c26a8a2f299efcc94caf2de4fce00)], [uint256(0x1da9020008df7f549751f8a251af3b2dc4a2ad3e0870de54acaedd9fc1b47e17), uint256(0x25ea0d7e2b29de431b86a943db30dbf4d98f68df9ca8a9628d14d1591e817d90)]) */\n      mload(0x40)\n      dup1\n      0x40\n      add\n      0x40\n      mstore\n      dup1\n      mload(0x40)\n      dup1\n      0x40\n      add\n      0x40\n      mstore\n      dup1\n        /* \"Verifier.sol\":21441:21507  0x2b4daf047abe2e7f0b311118c1b963b63695dc0d769cea78849604434de055bf */\n      0x2b4daf047abe2e7f0b311118c1b963b63695dc0d769cea78849604434de055bf\n        /* \"Verifier.sol\":21416:21743  Pairing.G2Point([uint256(0x2b4daf047abe2e7f0b311118c1b963b63695dc0d769cea78849604434de055bf), uint256(0x29c13ecb6f33dbc4b3b8a02e2e255511ce4c26a8a2f299efcc94caf2de4fce00)], [uint256(0x1da9020008df7f549751f8a251af3b2dc4a2ad3e0870de54acaedd9fc1b47e17), uint256(0x25ea0d7e2b29de431b86a943db30dbf4d98f68df9ca8a9628d14d1591e817d90)]) */\n      dup2\n      mstore\n      0x20\n      add\n        /* \"Verifier.sol\":21518:21584  0x29c13ecb6f33dbc4b3b8a02e2e255511ce4c26a8a2f299efcc94caf2de4fce00 */\n      0x29c13ecb6f33dbc4b3b8a02e2e255511ce4c26a8a2f299efcc94caf2de4fce00\n        /* \"Verifier.sol\":21416:21743  Pairing.G2Point([uint256(0x2b4daf047abe2e7f0b311118c1b963b63695dc0d769cea78849604434de055bf), uint256(0x29c13ecb6f33dbc4b3b8a02e2e255511ce4c26a8a2f299efcc94caf2de4fce00)], [uint256(0x1da9020008df7f549751f8a251af3b2dc4a2ad3e0870de54acaedd9fc1b47e17), uint256(0x25ea0d7e2b29de431b86a943db30dbf4d98f68df9ca8a9628d14d1591e817d90)]) */\n      dup2\n      mstore\n      pop\n      dup2\n      mstore\n      0x20\n      add\n      mload(0x40)\n      dup1\n      0x40\n      add\n      0x40\n      mstore\n      dup1\n        /* \"Verifier.sol\":21597:21663  0x1da9020008df7f549751f8a251af3b2dc4a2ad3e0870de54acaedd9fc1b47e17 */\n      0x1da9020008df7f549751f8a251af3b2dc4a2ad3e0870de54acaedd9fc1b47e17\n        /* \"Verifier.sol\":21416:21743  Pairing.G2Point([uint256(0x2b4daf047abe2e7f0b311118c1b963b63695dc0d769cea78849604434de055bf), uint256(0x29c13ecb6f33dbc4b3b8a02e2e255511ce4c26a8a2f299efcc94caf2de4fce00)], [uint256(0x1da9020008df7f549751f8a251af3b2dc4a2ad3e0870de54acaedd9fc1b47e17), uint256(0x25ea0d7e2b29de431b86a943db30dbf4d98f68df9ca8a9628d14d1591e817d90)]) */\n      dup2\n      mstore\n      0x20\n      add\n        /* \"Verifier.sol\":21674:21740  0x25ea0d7e2b29de431b86a943db30dbf4d98f68df9ca8a9628d14d1591e817d90 */\n      0x25ea0d7e2b29de431b86a943db30dbf4d98f68df9ca8a9628d14d1591e817d90\n        /* \"Verifier.sol\":21416:21743  Pairing.G2Point([uint256(0x2b4daf047abe2e7f0b311118c1b963b63695dc0d769cea78849604434de055bf), uint256(0x29c13ecb6f33dbc4b3b8a02e2e255511ce4c26a8a2f299efcc94caf2de4fce00)], [uint256(0x1da9020008df7f549751f8a251af3b2dc4a2ad3e0870de54acaedd9fc1b47e17), uint256(0x25ea0d7e2b29de431b86a943db30dbf4d98f68df9ca8a9628d14d1591e817d90)]) */\n      dup2\n      mstore\n      pop\n      dup2\n      mstore\n      pop\n        /* \"Verifier.sol\":21409:21411  vk */\n      dup2\n        /* \"Verifier.sol\":21409:21413  vk.b */\n      0x20\n      add\n        /* \"Verifier.sol\":21409:21743  vk.b = Pairing.G2Point([uint256(0x2b4daf047abe2e7f0b311118c1b963b63695dc0d769cea78849604434de055bf), uint256(0x29c13ecb6f33dbc4b3b8a02e2e255511ce4c26a8a2f299efcc94caf2de4fce00)], [uint256(0x1da9020008df7f549751f8a251af3b2dc4a2ad3e0870de54acaedd9fc1b47e17), uint256(0x25ea0d7e2b29de431b86a943db30dbf4d98f68df9ca8a9628d14d1591e817d90)]) */\n      dup2\n      swap1\n      mstore\n      pop\n        /* \"Verifier.sol\":21764:22091  Pairing.G2Point([uint256(0x011016e22ae045444f50fb80f246ec486c7e02af09132cd38c4fcf484983e4f2), uint256(0x00e83c788c2878d1d5eba3ed49b0d81e4c0487dedc3e4d1c2baab5833785b62f)], [uint256(0x05eb89e741ed5b5d611cebf92d1ed02cd6f3311089f0d400df7d9ced5a48fd41), uint256(0x132a90a3b0d369ccd66e2a5ba04a935e44d8ad5dca93a76bba592a578130a911)]) */\n      mload(0x40)\n      dup1\n      0x40\n      add\n      0x40\n      mstore\n      dup1\n      mload(0x40)\n      dup1\n      0x40\n      add\n      0x40\n      mstore\n      dup1\n        /* \"Verifier.sol\":21789:21855  0x011016e22ae045444f50fb80f246ec486c7e02af09132cd38c4fcf484983e4f2 */\n      0x011016e22ae045444f50fb80f246ec486c7e02af09132cd38c4fcf484983e4f2\n        /* \"Verifier.sol\":21764:22091  Pairing.G2Point([uint256(0x011016e22ae045444f50fb80f246ec486c7e02af09132cd38c4fcf484983e4f2), uint256(0x00e83c788c2878d1d5eba3ed49b0d81e4c0487dedc3e4d1c2baab5833785b62f)], [uint256(0x05eb89e741ed5b5d611cebf92d1ed02cd6f3311089f0d400df7d9ced5a48fd41), uint256(0x132a90a3b0d369ccd66e2a5ba04a935e44d8ad5dca93a76bba592a578130a911)]) */\n      dup2\n      mstore\n      0x20\n      add\n        /* \"Verifier.sol\":21866:21932  0x00e83c788c2878d1d5eba3ed49b0d81e4c0487dedc3e4d1c2baab5833785b62f */\n      0xe83c788c2878d1d5eba3ed49b0d81e4c0487dedc3e4d1c2baab5833785b62f\n        /* \"Verifier.sol\":21764:22091  Pairing.G2Point([uint256(0x011016e22ae045444f50fb80f246ec486c7e02af09132cd38c4fcf484983e4f2), uint256(0x00e83c788c2878d1d5eba3ed49b0d81e4c0487dedc3e4d1c2baab5833785b62f)], [uint256(0x05eb89e741ed5b5d611cebf92d1ed02cd6f3311089f0d400df7d9ced5a48fd41), uint256(0x132a90a3b0d369ccd66e2a5ba04a935e44d8ad5dca93a76bba592a578130a911)]) */\n      dup2\n      mstore\n      pop\n      dup2\n      mstore\n      0x20\n      add\n      mload(0x40)\n      dup1\n      0x40\n      add\n      0x40\n      mstore\n      dup1\n        /* \"Verifier.sol\":21945:22011  0x05eb89e741ed5b5d611cebf92d1ed02cd6f3311089f0d400df7d9ced5a48fd41 */\n      0x05eb89e741ed5b5d611cebf92d1ed02cd6f3311089f0d400df7d9ced5a48fd41\n        /* \"Verifier.sol\":21764:22091  Pairing.G2Point([uint256(0x011016e22ae045444f50fb80f246ec486c7e02af09132cd38c4fcf484983e4f2), uint256(0x00e83c788c2878d1d5eba3ed49b0d81e4c0487dedc3e4d1c2baab5833785b62f)], [uint256(0x05eb89e741ed5b5d611cebf92d1ed02cd6f3311089f0d400df7d9ced5a48fd41), uint256(0x132a90a3b0d369ccd66e2a5ba04a935e44d8ad5dca93a76bba592a578130a911)]) */\n      dup2\n      mstore\n      0x20\n      add\n        /* \"Verifier.sol\":22022:22088  0x132a90a3b0d369ccd66e2a5ba04a935e44d8ad5dca93a76bba592a578130a911 */\n      0x132a90a3b0d369ccd66e2a5ba04a935e44d8ad5dca93a76bba592a578130a911\n        /* \"Verifier.sol\":21764:22091  Pairing.G2Point([uint256(0x011016e22ae045444f50fb80f246ec486c7e02af09132cd38c4fcf484983e4f2), uint256(0x00e83c788c2878d1d5eba3ed49b0d81e4c0487dedc3e4d1c2baab5833785b62f)], [uint256(0x05eb89e741ed5b5d611cebf92d1ed02cd6f3311089f0d400df7d9ced5a48fd41), uint256(0x132a90a3b0d369ccd66e2a5ba04a935e44d8ad5dca93a76bba592a578130a911)]) */\n      dup2\n      mstore\n      pop\n      dup2\n      mstore\n      pop\n        /* \"Verifier.sol\":21753:21755  vk */\n      dup2\n        /* \"Verifier.sol\":21753:21761  vk.gamma */\n      0x40\n      add\n        /* \"Verifier.sol\":21753:22091  vk.gamma = Pairing.G2Point([uint256(0x011016e22ae045444f50fb80f246ec486c7e02af09132cd38c4fcf484983e4f2), uint256(0x00e83c788c2878d1d5eba3ed49b0d81e4c0487dedc3e4d1c2baab5833785b62f)], [uint256(0x05eb89e741ed5b5d611cebf92d1ed02cd6f3311089f0d400df7d9ced5a48fd41), uint256(0x132a90a3b0d369ccd66e2a5ba04a935e44d8ad5dca93a76bba592a578130a911)]) */\n      dup2\n      swap1\n      mstore\n      pop\n        /* \"Verifier.sol\":22112:22439  Pairing.G2Point([uint256(0x065f6a3323a2abffd621fc263f348eb914904b68d5897729ae34a6b9d33f0852), uint256(0x0c3b60f59d3bd50328a04c0ff6d979199685d0526f89f6ac29d6174ce24707a2)], [uint256(0x26e7ebce2b44efef6b6315938e33f0a8ecc82dbad635c9efa681ed85bbb59982), uint256(0x12e0f3721230a0f38f6c9913048d5230fd2615ef3ff7f6ee4b20dfe0bdea1a86)]) */\n      mload(0x40)\n      dup1\n      0x40\n      add\n      0x40\n      mstore\n      dup1\n      mload(0x40)\n      dup1\n      0x40\n      add\n      0x40\n      mstore\n      dup1\n        /* \"Verifier.sol\":22137:22203  0x065f6a3323a2abffd621fc263f348eb914904b68d5897729ae34a6b9d33f0852 */\n      0x065f6a3323a2abffd621fc263f348eb914904b68d5897729ae34a6b9d33f0852\n        /* \"Verifier.sol\":22112:22439  Pairing.G2Point([uint256(0x065f6a3323a2abffd621fc263f348eb914904b68d5897729ae34a6b9d33f0852), uint256(0x0c3b60f59d3bd50328a04c0ff6d979199685d0526f89f6ac29d6174ce24707a2)], [uint256(0x26e7ebce2b44efef6b6315938e33f0a8ecc82dbad635c9efa681ed85bbb59982), uint256(0x12e0f3721230a0f38f6c9913048d5230fd2615ef3ff7f6ee4b20dfe0bdea1a86)]) */\n      dup2\n      mstore\n      0x20\n      add\n        /* \"Verifier.sol\":22214:22280  0x0c3b60f59d3bd50328a04c0ff6d979199685d0526f89f6ac29d6174ce24707a2 */\n      0x0c3b60f59d3bd50328a04c0ff6d979199685d0526f89f6ac29d6174ce24707a2\n        /* \"Verifier.sol\":22112:22439  Pairing.G2Point([uint256(0x065f6a3323a2abffd621fc263f348eb914904b68d5897729ae34a6b9d33f0852), uint256(0x0c3b60f59d3bd50328a04c0ff6d979199685d0526f89f6ac29d6174ce24707a2)], [uint256(0x26e7ebce2b44efef6b6315938e33f0a8ecc82dbad635c9efa681ed85bbb59982), uint256(0x12e0f3721230a0f38f6c9913048d5230fd2615ef3ff7f6ee4b20dfe0bdea1a86)]) */\n      dup2\n      mstore\n      pop\n      dup2\n      mstore\n      0x20\n      add\n      mload(0x40)\n      dup1\n      0x40\n      add\n      0x40\n      mstore\n      dup1\n        /* \"Verifier.sol\":22293:22359  0x26e7ebce2b44efef6b6315938e33f0a8ecc82dbad635c9efa681ed85bbb59982 */\n      0x26e7ebce2b44efef6b6315938e33f0a8ecc82dbad635c9efa681ed85bbb59982\n        /* \"Verifier.sol\":22112:22439  Pairing.G2Point([uint256(0x065f6a3323a2abffd621fc263f348eb914904b68d5897729ae34a6b9d33f0852), uint256(0x0c3b60f59d3bd50328a04c0ff6d979199685d0526f89f6ac29d6174ce24707a2)], [uint256(0x26e7ebce2b44efef6b6315938e33f0a8ecc82dbad635c9efa681ed85bbb59982), uint256(0x12e0f3721230a0f38f6c9913048d5230fd2615ef3ff7f6ee4b20dfe0bdea1a86)]) */\n      dup2\n      mstore\n      0x20\n      add\n        /* \"Verifier.sol\":22370:22436  0x12e0f3721230a0f38f6c9913048d5230fd2615ef3ff7f6ee4b20dfe0bdea1a86 */\n      0x12e0f3721230a0f38f6c9913048d5230fd2615ef3ff7f6ee4b20dfe0bdea1a86\n        /* \"Verifier.sol\":22112:22439  Pairing.G2Point([uint256(0x065f6a3323a2abffd621fc263f348eb914904b68d5897729ae34a6b9d33f0852), uint256(0x0c3b60f59d3bd50328a04c0ff6d979199685d0526f89f6ac29d6174ce24707a2)], [uint256(0x26e7ebce2b44efef6b6315938e33f0a8ecc82dbad635c9efa681ed85bbb59982), uint256(0x12e0f3721230a0f38f6c9913048d5230fd2615ef3ff7f6ee4b20dfe0bdea1a86)]) */\n      dup2\n      mstore\n      pop\n      dup2\n      mstore\n      pop\n        /* \"Verifier.sol\":22101:22103  vk */\n      dup2\n        /* \"Verifier.sol\":22101:22109  vk.delta */\n      0x60\n      add\n        /* \"Verifier.sol\":22101:22439  vk.delta = Pairing.G2Point([uint256(0x065f6a3323a2abffd621fc263f348eb914904b68d5897729ae34a6b9d33f0852), uint256(0x0c3b60f59d3bd50328a04c0ff6d979199685d0526f89f6ac29d6174ce24707a2)], [uint256(0x26e7ebce2b44efef6b6315938e33f0a8ecc82dbad635c9efa681ed85bbb59982), uint256(0x12e0f3721230a0f38f6c9913048d5230fd2615ef3ff7f6ee4b20dfe0bdea1a86)]) */\n      dup2\n      swap1\n      mstore\n      pop\n        /* \"Verifier.sol\":22486:22487  2 */\n      0x02\n        /* \"Verifier.sol\":22464:22488  new Pairing.G1Point[](2) */\n      0xffffffffffffffff\n      dup2\n      gt\n      dup1\n      iszero\n      tag_54\n      jumpi\n      0x00\n      dup1\n      revert\n    tag_54:\n      pop\n      mload(0x40)\n      swap1\n      dup1\n      dup3\n      mstore\n      dup1\n      0x20\n      mul\n      0x20\n      add\n      dup3\n      add\n      0x40\n      mstore\n      dup1\n      iszero\n      tag_55\n      jumpi\n      dup2\n      0x20\n      add\n    tag_56:\n      tag_57\n      tag_31\n      jump\t// in\n    tag_57:\n      dup2\n      mstore\n      0x20\n      add\n      swap1\n      0x01\n      swap1\n      sub\n      swap1\n      dup2\n      tag_56\n      jumpi\n      swap1\n      pop\n    tag_55:\n      pop\n        /* \"Verifier.sol\":22449:22451  vk */\n      dup2\n        /* \"Verifier.sol\":22449:22461  vk.gamma_abc */\n      0x80\n      add\n        /* \"Verifier.sol\":22449:22488  vk.gamma_abc = new Pairing.G1Point[](2) */\n      dup2\n      swap1\n      mstore\n      pop\n        /* \"Verifier.sol\":22516:22685  Pairing.G1Point(uint256(0x07f481a1cb7cea7eb760d12aa4d1b61ab95a34d63783e68b0bbc9a524c388135), uint256(0x0b723281a130974c10d5bc702601b943cfb263864afd4ce5c4c0e61d8619e132)) */\n      mload(0x40)\n      dup1\n      0x40\n      add\n      0x40\n      mstore\n      dup1\n        /* \"Verifier.sol\":22540:22606  0x07f481a1cb7cea7eb760d12aa4d1b61ab95a34d63783e68b0bbc9a524c388135 */\n      0x07f481a1cb7cea7eb760d12aa4d1b61ab95a34d63783e68b0bbc9a524c388135\n        /* \"Verifier.sol\":22516:22685  Pairing.G1Point(uint256(0x07f481a1cb7cea7eb760d12aa4d1b61ab95a34d63783e68b0bbc9a524c388135), uint256(0x0b723281a130974c10d5bc702601b943cfb263864afd4ce5c4c0e61d8619e132)) */\n      dup2\n      mstore\n      0x20\n      add\n        /* \"Verifier.sol\":22617:22683  0x0b723281a130974c10d5bc702601b943cfb263864afd4ce5c4c0e61d8619e132 */\n      0x0b723281a130974c10d5bc702601b943cfb263864afd4ce5c4c0e61d8619e132\n        /* \"Verifier.sol\":22516:22685  Pairing.G1Point(uint256(0x07f481a1cb7cea7eb760d12aa4d1b61ab95a34d63783e68b0bbc9a524c388135), uint256(0x0b723281a130974c10d5bc702601b943cfb263864afd4ce5c4c0e61d8619e132)) */\n      dup2\n      mstore\n      pop\n        /* \"Verifier.sol\":22498:22500  vk */\n      dup2\n        /* \"Verifier.sol\":22498:22510  vk.gamma_abc */\n      0x80\n      add\n      mload\n        /* \"Verifier.sol\":22511:22512  0 */\n      0x00\n        /* \"Verifier.sol\":22498:22513  vk.gamma_abc[0] */\n      dup2\n      mload\n      dup2\n      lt\n      tag_58\n      jumpi\n      invalid\n    tag_58:\n      0x20\n      mul\n      0x20\n      add\n      add\n        /* \"Verifier.sol\":22498:22685  vk.gamma_abc[0] = Pairing.G1Point(uint256(0x07f481a1cb7cea7eb760d12aa4d1b61ab95a34d63783e68b0bbc9a524c388135), uint256(0x0b723281a130974c10d5bc702601b943cfb263864afd4ce5c4c0e61d8619e132)) */\n      dup2\n      swap1\n      mstore\n      pop\n        /* \"Verifier.sol\":22713:22882  Pairing.G1Point(uint256(0x1f86c8f7610cced630b8f704def6d0756a43c68d012b98b3801c6b5649009849), uint256(0x2b6b7f92ab24620816bde4842e27fa635932dcecdab53c799403f5bca9718914)) */\n      mload(0x40)\n      dup1\n      0x40\n      add\n      0x40\n      mstore\n      dup1\n        /* \"Verifier.sol\":22737:22803  0x1f86c8f7610cced630b8f704def6d0756a43c68d012b98b3801c6b5649009849 */\n      0x1f86c8f7610cced630b8f704def6d0756a43c68d012b98b3801c6b5649009849\n        /* \"Verifier.sol\":22713:22882  Pairing.G1Point(uint256(0x1f86c8f7610cced630b8f704def6d0756a43c68d012b98b3801c6b5649009849), uint256(0x2b6b7f92ab24620816bde4842e27fa635932dcecdab53c799403f5bca9718914)) */\n      dup2\n      mstore\n      0x20\n      add\n        /* \"Verifier.sol\":22814:22880  0x2b6b7f92ab24620816bde4842e27fa635932dcecdab53c799403f5bca9718914 */\n      0x2b6b7f92ab24620816bde4842e27fa635932dcecdab53c799403f5bca9718914\n        /* \"Verifier.sol\":22713:22882  Pairing.G1Point(uint256(0x1f86c8f7610cced630b8f704def6d0756a43c68d012b98b3801c6b5649009849), uint256(0x2b6b7f92ab24620816bde4842e27fa635932dcecdab53c799403f5bca9718914)) */\n      dup2\n      mstore\n      pop\n        /* \"Verifier.sol\":22695:22697  vk */\n      dup2\n        /* \"Verifier.sol\":22695:22707  vk.gamma_abc */\n      0x80\n      add\n      mload\n        /* \"Verifier.sol\":22708:22709  1 */\n      0x01\n        /* \"Verifier.sol\":22695:22710  vk.gamma_abc[1] */\n      dup2\n      mload\n      dup2\n      lt\n      tag_59\n      jumpi\n      invalid\n    tag_59:\n      0x20\n      mul\n      0x20\n      add\n      add\n        /* \"Verifier.sol\":22695:22882  vk.gamma_abc[1] = Pairing.G1Point(uint256(0x1f86c8f7610cced630b8f704def6d0756a43c68d012b98b3801c6b5649009849), uint256(0x2b6b7f92ab24620816bde4842e27fa635932dcecdab53c799403f5bca9718914)) */\n      dup2\n      swap1\n      mstore\n      pop\n        /* \"Verifier.sol\":21142:22889  function verifyingKey() pure internal returns (VerifyingKey memory vk) {... */\n      swap1\n      jump\t// out\n        /* \"Verifier.sol\":17681:18127  function scalar_mul(G1Point memory p, uint s) internal returns (G1Point memory r) {... */\n    tag_41:\n        /* \"Verifier.sol\":17745:17761  G1Point memory r */\n      tag_60\n      tag_31\n      jump\t// in\n    tag_60:\n        /* \"Verifier.sol\":17773:17793  uint[3] memory input */\n      tag_62\n      tag_63\n      jump\t// in\n    tag_62:\n        /* \"Verifier.sol\":17814:17815  p */\n      dup4\n        /* \"Verifier.sol\":17814:17817  p.X */\n      0x00\n      add\n      mload\n        /* \"Verifier.sol\":17803:17808  input */\n      dup2\n        /* \"Verifier.sol\":17809:17810  0 */\n      0x00\n        /* \"Verifier.sol\":17803:17811  input[0] */\n      0x03\n      dup2\n      lt\n      tag_64\n      jumpi\n      invalid\n    tag_64:\n      0x20\n      mul\n      add\n        /* \"Verifier.sol\":17803:17817  input[0] = p.X */\n      dup2\n      dup2\n      mstore\n      pop\n      pop\n        /* \"Verifier.sol\":17838:17839  p */\n      dup4\n        /* \"Verifier.sol\":17838:17841  p.Y */\n      0x20\n      add\n      mload\n        /* \"Verifier.sol\":17827:17832  input */\n      dup2\n        /* \"Verifier.sol\":17833:17834  1 */\n      0x01\n        /* \"Verifier.sol\":17827:17835  input[1] */\n      0x03\n      dup2\n      lt\n      tag_65\n      jumpi\n      invalid\n    tag_65:\n      0x20\n      mul\n      add\n        /* \"Verifier.sol\":17827:17841  input[1] = p.Y */\n      dup2\n      dup2\n      mstore\n      pop\n      pop\n        /* \"Verifier.sol\":17862:17863  s */\n      dup3\n        /* \"Verifier.sol\":17851:17856  input */\n      dup2\n        /* \"Verifier.sol\":17857:17858  2 */\n      0x02\n        /* \"Verifier.sol\":17851:17859  input[2] */\n      0x03\n      dup2\n      lt\n      tag_66\n      jumpi\n      invalid\n    tag_66:\n      0x20\n      mul\n      add\n        /* \"Verifier.sol\":17851:17863  input[2] = s */\n      dup2\n      dup2\n      mstore\n      pop\n      pop\n        /* \"Verifier.sol\":17873:17885  bool success */\n      0x00\n        /* \"Verifier.sol\":17974:17978  0x60 */\n      0x60\n        /* \"Verifier.sol\":17971:17972  r */\n      dup4\n        /* \"Verifier.sol\":17965:17969  0x80 */\n      0x80\n        /* \"Verifier.sol\":17958:17963  input */\n      dup5\n        /* \"Verifier.sol\":17955:17956  0 */\n      0x00\n        /* \"Verifier.sol\":17952:17953  7 */\n      0x07\n        /* \"Verifier.sol\":17945:17949  2000 */\n      0x07d0\n        /* \"Verifier.sol\":17938:17943  gas() */\n      gas\n        /* \"Verifier.sol\":17934:17950  sub(gas(), 2000) */\n      sub\n        /* \"Verifier.sol\":17929:17979  call(sub(gas(), 2000), 7, 0, input, 0x80, r, 0x60) */\n      call\n        /* \"Verifier.sol\":17918:17979  success := call(sub(gas(), 2000), 7, 0, input, 0x80, r, 0x60) */\n      swap1\n      pop\n        /* \"Verifier.sol\":18056:18063  success */\n      dup1\n        /* \"Verifier.sol\":18069:18070  0 */\n      0x00\n        /* \"Verifier.sol\":18064:18084  case 0 { invalid() } */\n      dup2\n      eq\n      tag_68\n      jumpi\n        /* \"Verifier.sol\":18049:18084  switch success case 0 { invalid() } */\n      jump(tag_67)\n        /* \"Verifier.sol\":18064:18084  case 0 { invalid() } */\n    tag_68:\n        /* \"Verifier.sol\":18073:18082  invalid() */\n      invalid\n        /* \"Verifier.sol\":18049:18084  switch success case 0 { invalid() } */\n    tag_67:\n      pop\n        /* \"Verifier.sol\":18112:18119  success */\n      dup1\n        /* \"Verifier.sol\":18103:18120  require (success) */\n      tag_69\n      jumpi\n      0x00\n      dup1\n      revert\n    tag_69:\n        /* \"Verifier.sol\":17681:18127  function scalar_mul(G1Point memory p, uint s) internal returns (G1Point memory r) {... */\n      pop\n      pop\n      swap3\n      swap2\n      pop\n      pop\n      jump\t// out\n        /* \"Verifier.sol\":16763:17248  function addition(G1Point memory p1, G1Point memory p2) internal returns (G1Point memory r) {... */\n    tag_42:\n        /* \"Verifier.sol\":16837:16853  G1Point memory r */\n      tag_70\n      tag_31\n      jump\t// in\n    tag_70:\n        /* \"Verifier.sol\":16865:16885  uint[4] memory input */\n      tag_72\n      tag_73\n      jump\t// in\n    tag_72:\n        /* \"Verifier.sol\":16906:16908  p1 */\n      dup4\n        /* \"Verifier.sol\":16906:16910  p1.X */\n      0x00\n      add\n      mload\n        /* \"Verifier.sol\":16895:16900  input */\n      dup2\n        /* \"Verifier.sol\":16901:16902  0 */\n      0x00\n        /* \"Verifier.sol\":16895:16903  input[0] */\n      0x04\n      dup2\n      lt\n      tag_74\n      jumpi\n      invalid\n    tag_74:\n      0x20\n      mul\n      add\n        /* \"Verifier.sol\":16895:16910  input[0] = p1.X */\n      dup2\n      dup2\n      mstore\n      pop\n      pop\n        /* \"Verifier.sol\":16931:16933  p1 */\n      dup4\n        /* \"Verifier.sol\":16931:16935  p1.Y */\n      0x20\n      add\n      mload\n        /* \"Verifier.sol\":16920:16925  input */\n      dup2\n        /* \"Verifier.sol\":16926:16927  1 */\n      0x01\n        /* \"Verifier.sol\":16920:16928  input[1] */\n      0x04\n      dup2\n      lt\n      tag_75\n      jumpi\n      invalid\n    tag_75:\n      0x20\n      mul\n      add\n        /* \"Verifier.sol\":16920:16935  input[1] = p1.Y */\n      dup2\n      dup2\n      mstore\n      pop\n      pop\n        /* \"Verifier.sol\":16956:16958  p2 */\n      dup3\n        /* \"Verifier.sol\":16956:16960  p2.X */\n      0x00\n      add\n      mload\n        /* \"Verifier.sol\":16945:16950  input */\n      dup2\n        /* \"Verifier.sol\":16951:16952  2 */\n      0x02\n        /* \"Verifier.sol\":16945:16953  input[2] */\n      0x04\n      dup2\n      lt\n      tag_76\n      jumpi\n      invalid\n    tag_76:\n      0x20\n      mul\n      add\n        /* \"Verifier.sol\":16945:16960  input[2] = p2.X */\n      dup2\n      dup2\n      mstore\n      pop\n      pop\n        /* \"Verifier.sol\":16981:16983  p2 */\n      dup3\n        /* \"Verifier.sol\":16981:16985  p2.Y */\n      0x20\n      add\n      mload\n        /* \"Verifier.sol\":16970:16975  input */\n      dup2\n        /* \"Verifier.sol\":16976:16977  3 */\n      0x03\n        /* \"Verifier.sol\":16970:16978  input[3] */\n      0x04\n      dup2\n      lt\n      tag_77\n      jumpi\n      invalid\n    tag_77:\n      0x20\n      mul\n      add\n        /* \"Verifier.sol\":16970:16985  input[3] = p2.Y */\n      dup2\n      dup2\n      mstore\n      pop\n      pop\n        /* \"Verifier.sol\":16995:17007  bool success */\n      0x00\n        /* \"Verifier.sol\":17096:17100  0x60 */\n      0x60\n        /* \"Verifier.sol\":17093:17094  r */\n      dup4\n        /* \"Verifier.sol\":17087:17091  0xc0 */\n      0xc0\n        /* \"Verifier.sol\":17080:17085  input */\n      dup5\n        /* \"Verifier.sol\":17077:17078  0 */\n      0x00\n        /* \"Verifier.sol\":17074:17075  6 */\n      0x06\n        /* \"Verifier.sol\":17067:17071  2000 */\n      0x07d0\n        /* \"Verifier.sol\":17060:17065  gas() */\n      gas\n        /* \"Verifier.sol\":17056:17072  sub(gas(), 2000) */\n      sub\n        /* \"Verifier.sol\":17051:17101  call(sub(gas(), 2000), 6, 0, input, 0xc0, r, 0x60) */\n      call\n        /* \"Verifier.sol\":17040:17101  success := call(sub(gas(), 2000), 6, 0, input, 0xc0, r, 0x60) */\n      swap1\n      pop\n        /* \"Verifier.sol\":17178:17185  success */\n      dup1\n        /* \"Verifier.sol\":17191:17192  0 */\n      0x00\n        /* \"Verifier.sol\":17186:17206  case 0 { invalid() } */\n      dup2\n      eq\n      tag_79\n      jumpi\n        /* \"Verifier.sol\":17171:17206  switch success case 0 { invalid() } */\n      jump(tag_78)\n        /* \"Verifier.sol\":17186:17206  case 0 { invalid() } */\n    tag_79:\n        /* \"Verifier.sol\":17195:17204  invalid() */\n      invalid\n        /* \"Verifier.sol\":17171:17206  switch success case 0 { invalid() } */\n    tag_78:\n      pop\n        /* \"Verifier.sol\":17233:17240  success */\n      dup1\n        /* \"Verifier.sol\":17225:17241  require(success) */\n      tag_80\n      jumpi\n      0x00\n      dup1\n      revert\n    tag_80:\n        /* \"Verifier.sol\":16763:17248  function addition(G1Point memory p1, G1Point memory p2) internal returns (G1Point memory r) {... */\n      pop\n      pop\n      swap3\n      swap2\n      pop\n      pop\n      jump\t// out\n        /* \"Verifier.sol\":16372:16712  function negate(G1Point memory p) pure internal returns (G1Point memory) {... */\n    tag_47:\n        /* \"Verifier.sol\":16429:16443  G1Point memory */\n      tag_81\n      tag_31\n      jump\t// in\n    tag_81:\n        /* \"Verifier.sol\":16507:16513  uint q */\n      0x00\n        /* \"Verifier.sol\":16516:16593  21888242871839275222246405745257275088696311157297823662689037894645226208583 */\n      0x30644e72e131a029b85045b68181585d97816a916871ca8d3c208c16d87cfd47\n        /* \"Verifier.sol\":16507:16593  uint q = 21888242871839275222246405745257275088696311157297823662689037894645226208583 */\n      swap1\n      pop\n        /* \"Verifier.sol\":16614:16615  0 */\n      0x00\n        /* \"Verifier.sol\":16607:16608  p */\n      dup4\n        /* \"Verifier.sol\":16607:16610  p.X */\n      0x00\n      add\n      mload\n        /* \"Verifier.sol\":16607:16615  p.X == 0 */\n      eq\n        /* \"Verifier.sol\":16607:16627  p.X == 0 && p.Y == 0 */\n      dup1\n      iszero\n      tag_83\n      jumpi\n      pop\n        /* \"Verifier.sol\":16626:16627  0 */\n      0x00\n        /* \"Verifier.sol\":16619:16620  p */\n      dup4\n        /* \"Verifier.sol\":16619:16622  p.Y */\n      0x20\n      add\n      mload\n        /* \"Verifier.sol\":16619:16627  p.Y == 0 */\n      eq\n        /* \"Verifier.sol\":16607:16627  p.X == 0 && p.Y == 0 */\n    tag_83:\n        /* \"Verifier.sol\":16603:16661  if (p.X == 0 && p.Y == 0)... */\n      iszero\n      tag_84\n      jumpi\n        /* \"Verifier.sol\":16648:16661  G1Point(0, 0) */\n      mload(0x40)\n      dup1\n      0x40\n      add\n      0x40\n      mstore\n      dup1\n        /* \"Verifier.sol\":16656:16657  0 */\n      0x00\n        /* \"Verifier.sol\":16648:16661  G1Point(0, 0) */\n      dup2\n      mstore\n      0x20\n      add\n        /* \"Verifier.sol\":16659:16660  0 */\n      0x00\n        /* \"Verifier.sol\":16648:16661  G1Point(0, 0) */\n      dup2\n      mstore\n      pop\n        /* \"Verifier.sol\":16641:16661  return G1Point(0, 0) */\n      swap2\n      pop\n      pop\n      jump(tag_82)\n        /* \"Verifier.sol\":16603:16661  if (p.X == 0 && p.Y == 0)... */\n    tag_84:\n        /* \"Verifier.sol\":16678:16705  G1Point(p.X, q - (p.Y % q)) */\n      mload(0x40)\n      dup1\n      0x40\n      add\n      0x40\n      mstore\n      dup1\n        /* \"Verifier.sol\":16686:16687  p */\n      dup5\n        /* \"Verifier.sol\":16686:16689  p.X */\n      0x00\n      add\n      mload\n        /* \"Verifier.sol\":16678:16705  G1Point(p.X, q - (p.Y % q)) */\n      dup2\n      mstore\n      0x20\n      add\n        /* \"Verifier.sol\":16702:16703  q */\n      dup3\n        /* \"Verifier.sol\":16696:16697  p */\n      dup6\n        /* \"Verifier.sol\":16696:16699  p.Y */\n      0x20\n      add\n      mload\n        /* \"Verifier.sol\":16696:16703  p.Y % q */\n      dup2\n      tag_85\n      jumpi\n      invalid\n    tag_85:\n      mod\n        /* \"Verifier.sol\":16691:16692  q */\n      dup4\n        /* \"Verifier.sol\":16691:16704  q - (p.Y % q) */\n      sub\n        /* \"Verifier.sol\":16678:16705  G1Point(p.X, q - (p.Y % q)) */\n      dup2\n      mstore\n      pop\n        /* \"Verifier.sol\":16671:16705  return G1Point(p.X, q - (p.Y % q)) */\n      swap2\n      pop\n      pop\n        /* \"Verifier.sol\":16372:16712  function negate(G1Point memory p) pure internal returns (G1Point memory) {... */\n    tag_82:\n      swap2\n      swap1\n      pop\n      jump\t// out\n        /* \"Verifier.sol\":20251:20798  function pairingProd4(... */\n    tag_50:\n        /* \"Verifier.sol\":20497:20501  bool */\n      0x00\n        /* \"Verifier.sol\":20513:20532  G1Point[] memory p1 */\n      0x60\n        /* \"Verifier.sol\":20549:20550  4 */\n      0x04\n        /* \"Verifier.sol\":20535:20551  new G1Point[](4) */\n      0xffffffffffffffff\n      dup2\n      gt\n      dup1\n      iszero\n      tag_87\n      jumpi\n      0x00\n      dup1\n      revert\n    tag_87:\n      pop\n      mload(0x40)\n      swap1\n      dup1\n      dup3\n      mstore\n      dup1\n      0x20\n      mul\n      0x20\n      add\n      dup3\n      add\n      0x40\n      mstore\n      dup1\n      iszero\n      tag_88\n      jumpi\n      dup2\n      0x20\n      add\n    tag_89:\n      tag_90\n      tag_31\n      jump\t// in\n    tag_90:\n      dup2\n      mstore\n      0x20\n      add\n      swap1\n      0x01\n      swap1\n      sub\n      swap1\n      dup2\n      tag_89\n      jumpi\n      swap1\n      pop\n    tag_88:\n      pop\n        /* \"Verifier.sol\":20513:20551  G1Point[] memory p1 = new G1Point[](4) */\n      swap1\n      pop\n        /* \"Verifier.sol\":20561:20580  G2Point[] memory p2 */\n      0x60\n        /* \"Verifier.sol\":20597:20598  4 */\n      0x04\n        /* \"Verifier.sol\":20583:20599  new G2Point[](4) */\n      0xffffffffffffffff\n      dup2\n      gt\n      dup1\n      iszero\n      tag_91\n      jumpi\n      0x00\n      dup1\n      revert\n    tag_91:\n      pop\n      mload(0x40)\n      swap1\n      dup1\n      dup3\n      mstore\n      dup1\n      0x20\n      mul\n      0x20\n      add\n      dup3\n      add\n      0x40\n      mstore\n      dup1\n      iszero\n      tag_92\n      jumpi\n      dup2\n      0x20\n      add\n    tag_93:\n      tag_94\n      tag_95\n      jump\t// in\n    tag_94:\n      dup2\n      mstore\n      0x20\n      add\n      swap1\n      0x01\n      swap1\n      sub\n      swap1\n      dup2\n      tag_93\n      jumpi\n      swap1\n      pop\n    tag_92:\n      pop\n        /* \"Verifier.sol\":20561:20599  G2Point[] memory p2 = new G2Point[](4) */\n      swap1\n      pop\n        /* \"Verifier.sol\":20617:20619  a1 */\n      dup11\n        /* \"Verifier.sol\":20609:20611  p1 */\n      dup3\n        /* \"Verifier.sol\":20612:20613  0 */\n      0x00\n        /* \"Verifier.sol\":20609:20614  p1[0] */\n      dup2\n      mload\n      dup2\n      lt\n      tag_96\n      jumpi\n      invalid\n    tag_96:\n      0x20\n      mul\n      0x20\n      add\n      add\n        /* \"Verifier.sol\":20609:20619  p1[0] = a1 */\n      dup2\n      swap1\n      mstore\n      pop\n        /* \"Verifier.sol\":20637:20639  b1 */\n      dup9\n        /* \"Verifier.sol\":20629:20631  p1 */\n      dup3\n        /* \"Verifier.sol\":20632:20633  1 */\n      0x01\n        /* \"Verifier.sol\":20629:20634  p1[1] */\n      dup2\n      mload\n      dup2\n      lt\n      tag_97\n      jumpi\n      invalid\n    tag_97:\n      0x20\n      mul\n      0x20\n      add\n      add\n        /* \"Verifier.sol\":20629:20639  p1[1] = b1 */\n      dup2\n      swap1\n      mstore\n      pop\n        /* \"Verifier.sol\":20657:20659  c1 */\n      dup7\n        /* \"Verifier.sol\":20649:20651  p1 */\n      dup3\n        /* \"Verifier.sol\":20652:20653  2 */\n      0x02\n        /* \"Verifier.sol\":20649:20654  p1[2] */\n      dup2\n      mload\n      dup2\n      lt\n      tag_98\n      jumpi\n      invalid\n    tag_98:\n      0x20\n      mul\n      0x20\n      add\n      add\n        /* \"Verifier.sol\":20649:20659  p1[2] = c1 */\n      dup2\n      swap1\n      mstore\n      pop\n        /* \"Verifier.sol\":20677:20679  d1 */\n      dup5\n        /* \"Verifier.sol\":20669:20671  p1 */\n      dup3\n        /* \"Verifier.sol\":20672:20673  3 */\n      0x03\n        /* \"Verifier.sol\":20669:20674  p1[3] */\n      dup2\n      mload\n      dup2\n      lt\n      tag_99\n      jumpi\n      invalid\n    tag_99:\n      0x20\n      mul\n      0x20\n      add\n      add\n        /* \"Verifier.sol\":20669:20679  p1[3] = d1 */\n      dup2\n      swap1\n      mstore\n      pop\n        /* \"Verifier.sol\":20697:20699  a2 */\n      dup10\n        /* \"Verifier.sol\":20689:20691  p2 */\n      dup2\n        /* \"Verifier.sol\":20692:20693  0 */\n      0x00\n        /* \"Verifier.sol\":20689:20694  p2[0] */\n      dup2\n      mload\n      dup2\n      lt\n      tag_100\n      jumpi\n      invalid\n    tag_100:\n      0x20\n      mul\n      0x20\n      add\n      add\n        /* \"Verifier.sol\":20689:20699  p2[0] = a2 */\n      dup2\n      swap1\n      mstore\n      pop\n        /* \"Verifier.sol\":20717:20719  b2 */\n      dup8\n        /* \"Verifier.sol\":20709:20711  p2 */\n      dup2\n        /* \"Verifier.sol\":20712:20713  1 */\n      0x01\n        /* \"Verifier.sol\":20709:20714  p2[1] */\n      dup2\n      mload\n      dup2\n      lt\n      tag_101\n      jumpi\n      invalid\n    tag_101:\n      0x20\n      mul\n      0x20\n      add\n      add\n        /* \"Verifier.sol\":20709:20719  p2[1] = b2 */\n      dup2\n      swap1\n      mstore\n      pop\n        /* \"Verifier.sol\":20737:20739  c2 */\n      dup6\n        /* \"Verifier.sol\":20729:20731  p2 */\n      dup2\n        /* \"Verifier.sol\":20732:20733  2 */\n      0x02\n        /* \"Verifier.sol\":20729:20734  p2[2] */\n      dup2\n      mload\n      dup2\n      lt\n      tag_102\n      jumpi\n      invalid\n    tag_102:\n      0x20\n      mul\n      0x20\n      add\n      add\n        /* \"Verifier.sol\":20729:20739  p2[2] = c2 */\n      dup2\n      swap1\n      mstore\n      pop\n        /* \"Verifier.sol\":20757:20759  d2 */\n      dup4\n        /* \"Verifier.sol\":20749:20751  p2 */\n      dup2\n        /* \"Verifier.sol\":20752:20753  3 */\n      0x03\n        /* \"Verifier.sol\":20749:20754  p2[3] */\n      dup2\n      mload\n      dup2\n      lt\n      tag_103\n      jumpi\n      invalid\n    tag_103:\n      0x20\n      mul\n      0x20\n      add\n      add\n        /* \"Verifier.sol\":20749:20759  p2[3] = d2 */\n      dup2\n      swap1\n      mstore\n      pop\n        /* \"Verifier.sol\":20776:20791  pairing(p1, p2) */\n      tag_104\n        /* \"Verifier.sol\":20784:20786  p1 */\n      dup3\n        /* \"Verifier.sol\":20788:20790  p2 */\n      dup3\n        /* \"Verifier.sol\":20776:20783  pairing */\n      tag_105\n        /* \"Verifier.sol\":20776:20791  pairing(p1, p2) */\n      jump\t// in\n    tag_104:\n        /* \"Verifier.sol\":20769:20791  return pairing(p1, p2) */\n      swap3\n      pop\n      pop\n      pop\n        /* \"Verifier.sol\":20251:20798  function pairingProd4(... */\n      swap9\n      swap8\n      pop\n      pop\n      pop\n      pop\n      pop\n      pop\n      pop\n      pop\n      jump\t// out\n        /* \"Verifier.sol\":18338:19253  function pairing(G1Point[] memory p1, G2Point[] memory p2) internal returns (bool) {... */\n    tag_105:\n        /* \"Verifier.sol\":18415:18419  bool */\n      0x00\n        /* \"Verifier.sol\":18452:18454  p2 */\n      dup2\n        /* \"Verifier.sol\":18452:18461  p2.length */\n      mload\n        /* \"Verifier.sol\":18439:18441  p1 */\n      dup4\n        /* \"Verifier.sol\":18439:18448  p1.length */\n      mload\n        /* \"Verifier.sol\":18439:18461  p1.length == p2.length */\n      eq\n        /* \"Verifier.sol\":18431:18462  require(p1.length == p2.length) */\n      tag_107\n      jumpi\n      0x00\n      dup1\n      revert\n    tag_107:\n        /* \"Verifier.sol\":18472:18485  uint elements */\n      0x00\n        /* \"Verifier.sol\":18488:18490  p1 */\n      dup4\n        /* \"Verifier.sol\":18488:18497  p1.length */\n      mload\n        /* \"Verifier.sol\":18472:18497  uint elements = p1.length */\n      swap1\n      pop\n        /* \"Verifier.sol\":18507:18521  uint inputSize */\n      0x00\n        /* \"Verifier.sol\":18535:18536  6 */\n      0x06\n        /* \"Verifier.sol\":18524:18532  elements */\n      dup3\n        /* \"Verifier.sol\":18524:18536  elements * 6 */\n      mul\n        /* \"Verifier.sol\":18507:18536  uint inputSize = elements * 6 */\n      swap1\n      pop\n        /* \"Verifier.sol\":18546:18565  uint[] memory input */\n      0x60\n        /* \"Verifier.sol\":18579:18588  inputSize */\n      dup2\n        /* \"Verifier.sol\":18568:18589  new uint[](inputSize) */\n      0xffffffffffffffff\n      dup2\n      gt\n      dup1\n      iszero\n      tag_108\n      jumpi\n      0x00\n      dup1\n      revert\n    tag_108:\n      pop\n      mload(0x40)\n      swap1\n      dup1\n      dup3\n      mstore\n      dup1\n      0x20\n      mul\n      0x20\n      add\n      dup3\n      add\n      0x40\n      mstore\n      dup1\n      iszero\n      tag_109\n      jumpi\n      dup2\n      0x20\n      add\n      0x20\n      dup3\n      mul\n      dup1\n      calldatasize\n      dup4\n      calldatacopy\n      dup1\n      dup3\n      add\n      swap2\n      pop\n      pop\n      swap1\n      pop\n    tag_109:\n      pop\n        /* \"Verifier.sol\":18546:18589  uint[] memory input = new uint[](inputSize) */\n      swap1\n      pop\n        /* \"Verifier.sol\":18604:18610  uint i */\n      0x00\n        /* \"Verifier.sol\":18613:18614  0 */\n      dup1\n        /* \"Verifier.sol\":18604:18614  uint i = 0 */\n      swap1\n      pop\n        /* \"Verifier.sol\":18599:18906  for (uint i = 0; i < elements; i++)... */\n    tag_110:\n        /* \"Verifier.sol\":18620:18628  elements */\n      dup4\n        /* \"Verifier.sol\":18616:18617  i */\n      dup2\n        /* \"Verifier.sol\":18616:18628  i < elements */\n      lt\n        /* \"Verifier.sol\":18599:18906  for (uint i = 0; i < elements; i++)... */\n      iszero\n      tag_111\n      jumpi\n        /* \"Verifier.sol\":18676:18678  p1 */\n      dup7\n        /* \"Verifier.sol\":18679:18680  i */\n      dup2\n        /* \"Verifier.sol\":18676:18681  p1[i] */\n      dup2\n      mload\n      dup2\n      lt\n      tag_113\n      jumpi\n      invalid\n    tag_113:\n      0x20\n      mul\n      0x20\n      add\n      add\n      mload\n        /* \"Verifier.sol\":18676:18683  p1[i].X */\n      0x00\n      add\n      mload\n        /* \"Verifier.sol\":18657:18662  input */\n      dup3\n        /* \"Verifier.sol\":18671:18672  0 */\n      0x00\n        /* \"Verifier.sol\":18667:18668  6 */\n      0x06\n        /* \"Verifier.sol\":18663:18664  i */\n      dup5\n        /* \"Verifier.sol\":18663:18668  i * 6 */\n      mul\n        /* \"Verifier.sol\":18663:18672  i * 6 + 0 */\n      add\n        /* \"Verifier.sol\":18657:18673  input[i * 6 + 0] */\n      dup2\n      mload\n      dup2\n      lt\n      tag_114\n      jumpi\n      invalid\n    tag_114:\n      0x20\n      mul\n      0x20\n      add\n      add\n        /* \"Verifier.sol\":18657:18683  input[i * 6 + 0] = p1[i].X */\n      dup2\n      dup2\n      mstore\n      pop\n      pop\n        /* \"Verifier.sol\":18716:18718  p1 */\n      dup7\n        /* \"Verifier.sol\":18719:18720  i */\n      dup2\n        /* \"Verifier.sol\":18716:18721  p1[i] */\n      dup2\n      mload\n      dup2\n      lt\n      tag_115\n      jumpi\n      invalid\n    tag_115:\n      0x20\n      mul\n      0x20\n      add\n      add\n      mload\n        /* \"Verifier.sol\":18716:18723  p1[i].Y */\n      0x20\n      add\n      mload\n        /* \"Verifier.sol\":18697:18702  input */\n      dup3\n        /* \"Verifier.sol\":18711:18712  1 */\n      0x01\n        /* \"Verifier.sol\":18707:18708  6 */\n      0x06\n        /* \"Verifier.sol\":18703:18704  i */\n      dup5\n        /* \"Verifier.sol\":18703:18708  i * 6 */\n      mul\n        /* \"Verifier.sol\":18703:18712  i * 6 + 1 */\n      add\n        /* \"Verifier.sol\":18697:18713  input[i * 6 + 1] */\n      dup2\n      mload\n      dup2\n      lt\n      tag_116\n      jumpi\n      invalid\n    tag_116:\n      0x20\n      mul\n      0x20\n      add\n      add\n        /* \"Verifier.sol\":18697:18723  input[i * 6 + 1] = p1[i].Y */\n      dup2\n      dup2\n      mstore\n      pop\n      pop\n        /* \"Verifier.sol\":18756:18758  p2 */\n      dup6\n        /* \"Verifier.sol\":18759:18760  i */\n      dup2\n        /* \"Verifier.sol\":18756:18761  p2[i] */\n      dup2\n      mload\n      dup2\n      lt\n      tag_117\n      jumpi\n      invalid\n    tag_117:\n      0x20\n      mul\n      0x20\n      add\n      add\n      mload\n        /* \"Verifier.sol\":18756:18763  p2[i].X */\n      0x00\n      add\n      mload\n        /* \"Verifier.sol\":18764:18765  0 */\n      0x00\n        /* \"Verifier.sol\":18756:18766  p2[i].X[0] */\n      0x02\n      dup2\n      lt\n      tag_118\n      jumpi\n      invalid\n    tag_118:\n      0x20\n      mul\n      add\n      mload\n        /* \"Verifier.sol\":18737:18742  input */\n      dup3\n        /* \"Verifier.sol\":18751:18752  2 */\n      0x02\n        /* \"Verifier.sol\":18747:18748  6 */\n      0x06\n        /* \"Verifier.sol\":18743:18744  i */\n      dup5\n        /* \"Verifier.sol\":18743:18748  i * 6 */\n      mul\n        /* \"Verifier.sol\":18743:18752  i * 6 + 2 */\n      add\n        /* \"Verifier.sol\":18737:18753  input[i * 6 + 2] */\n      dup2\n      mload\n      dup2\n      lt\n      tag_119\n      jumpi\n      invalid\n    tag_119:\n      0x20\n      mul\n      0x20\n      add\n      add\n        /* \"Verifier.sol\":18737:18766  input[i * 6 + 2] = p2[i].X[0] */\n      dup2\n      dup2\n      mstore\n      pop\n      pop\n        /* \"Verifier.sol\":18799:18801  p2 */\n      dup6\n        /* \"Verifier.sol\":18802:18803  i */\n      dup2\n        /* \"Verifier.sol\":18799:18804  p2[i] */\n      dup2\n      mload\n      dup2\n      lt\n      tag_120\n      jumpi\n      invalid\n    tag_120:\n      0x20\n      mul\n      0x20\n      add\n      add\n      mload\n        /* \"Verifier.sol\":18799:18806  p2[i].X */\n      0x00\n      add\n      mload\n        /* \"Verifier.sol\":18807:18808  1 */\n      0x01\n        /* \"Verifier.sol\":18799:18809  p2[i].X[1] */\n      0x02\n      dup2\n      lt\n      tag_121\n      jumpi\n      invalid\n    tag_121:\n      0x20\n      mul\n      add\n      mload\n        /* \"Verifier.sol\":18780:18785  input */\n      dup3\n        /* \"Verifier.sol\":18794:18795  3 */\n      0x03\n        /* \"Verifier.sol\":18790:18791  6 */\n      0x06\n        /* \"Verifier.sol\":18786:18787  i */\n      dup5\n        /* \"Verifier.sol\":18786:18791  i * 6 */\n      mul\n        /* \"Verifier.sol\":18786:18795  i * 6 + 3 */\n      add\n        /* \"Verifier.sol\":18780:18796  input[i * 6 + 3] */\n      dup2\n      mload\n      dup2\n      lt\n      tag_122\n      jumpi\n      invalid\n    tag_122:\n      0x20\n      mul\n      0x20\n      add\n      add\n        /* \"Verifier.sol\":18780:18809  input[i * 6 + 3] = p2[i].X[1] */\n      dup2\n      dup2\n      mstore\n      pop\n      pop\n        /* \"Verifier.sol\":18842:18844  p2 */\n      dup6\n        /* \"Verifier.sol\":18845:18846  i */\n      dup2\n        /* \"Verifier.sol\":18842:18847  p2[i] */\n      dup2\n      mload\n      dup2\n      lt\n      tag_123\n      jumpi\n      invalid\n    tag_123:\n      0x20\n      mul\n      0x20\n      add\n      add\n      mload\n        /* \"Verifier.sol\":18842:18849  p2[i].Y */\n      0x20\n      add\n      mload\n        /* \"Verifier.sol\":18850:18851  0 */\n      0x00\n        /* \"Verifier.sol\":18842:18852  p2[i].Y[0] */\n      0x02\n      dup2\n      lt\n      tag_124\n      jumpi\n      invalid\n    tag_124:\n      0x20\n      mul\n      add\n      mload\n        /* \"Verifier.sol\":18823:18828  input */\n      dup3\n        /* \"Verifier.sol\":18837:18838  4 */\n      0x04\n        /* \"Verifier.sol\":18833:18834  6 */\n      0x06\n        /* \"Verifier.sol\":18829:18830  i */\n      dup5\n        /* \"Verifier.sol\":18829:18834  i * 6 */\n      mul\n        /* \"Verifier.sol\":18829:18838  i * 6 + 4 */\n      add\n        /* \"Verifier.sol\":18823:18839  input[i * 6 + 4] */\n      dup2\n      mload\n      dup2\n      lt\n      tag_125\n      jumpi\n      invalid\n    tag_125:\n      0x20\n      mul\n      0x20\n      add\n      add\n        /* \"Verifier.sol\":18823:18852  input[i * 6 + 4] = p2[i].Y[0] */\n      dup2\n      dup2\n      mstore\n      pop\n      pop\n        /* \"Verifier.sol\":18885:18887  p2 */\n      dup6\n        /* \"Verifier.sol\":18888:18889  i */\n      dup2\n        /* \"Verifier.sol\":18885:18890  p2[i] */\n      dup2\n      mload\n      dup2\n      lt\n      tag_126\n      jumpi\n      invalid\n    tag_126:\n      0x20\n      mul\n      0x20\n      add\n      add\n      mload\n        /* \"Verifier.sol\":18885:18892  p2[i].Y */\n      0x20\n      add\n      mload\n        /* \"Verifier.sol\":18893:18894  1 */\n      0x01\n        /* \"Verifier.sol\":18885:18895  p2[i].Y[1] */\n      0x02\n      dup2\n      lt\n      tag_127\n      jumpi\n      invalid\n    tag_127:\n      0x20\n      mul\n      add\n      mload\n        /* \"Verifier.sol\":18866:18871  input */\n      dup3\n        /* \"Verifier.sol\":18880:18881  5 */\n      0x05\n        /* \"Verifier.sol\":18876:18877  6 */\n      0x06\n        /* \"Verifier.sol\":18872:18873  i */\n      dup5\n        /* \"Verifier.sol\":18872:18877  i * 6 */\n      mul\n        /* \"Verifier.sol\":18872:18881  i * 6 + 5 */\n      add\n        /* \"Verifier.sol\":18866:18882  input[i * 6 + 5] */\n      dup2\n      mload\n      dup2\n      lt\n      tag_128\n      jumpi\n      invalid\n    tag_128:\n      0x20\n      mul\n      0x20\n      add\n      add\n        /* \"Verifier.sol\":18866:18895  input[i * 6 + 5] = p2[i].Y[1] */\n      dup2\n      dup2\n      mstore\n      pop\n      pop\n        /* \"Verifier.sol\":18630:18633  i++ */\n      dup1\n      dup1\n      0x01\n      add\n      swap2\n      pop\n      pop\n        /* \"Verifier.sol\":18599:18906  for (uint i = 0; i < elements; i++)... */\n      jump(tag_110)\n    tag_111:\n      pop\n        /* \"Verifier.sol\":18915:18933  uint[1] memory out */\n      tag_129\n      tag_130\n      jump\t// in\n    tag_129:\n        /* \"Verifier.sol\":18943:18955  bool success */\n      0x00\n        /* \"Verifier.sol\":19073:19077  0x20 */\n      0x20\n        /* \"Verifier.sol\":19068:19071  out */\n      dup3\n        /* \"Verifier.sol\":19061:19065  0x20 */\n      0x20\n        /* \"Verifier.sol\":19050:19059  inputSize */\n      dup7\n        /* \"Verifier.sol\":19046:19066  mul(inputSize, 0x20) */\n      mul\n        /* \"Verifier.sol\":19039:19043  0x20 */\n      0x20\n        /* \"Verifier.sol\":19032:19037  input */\n      dup7\n        /* \"Verifier.sol\":19028:19044  add(input, 0x20) */\n      add\n        /* \"Verifier.sol\":19025:19026  0 */\n      0x00\n        /* \"Verifier.sol\":19022:19023  8 */\n      0x08\n        /* \"Verifier.sol\":19015:19019  2000 */\n      0x07d0\n        /* \"Verifier.sol\":19008:19013  gas() */\n      gas\n        /* \"Verifier.sol\":19004:19020  sub(gas(), 2000) */\n      sub\n        /* \"Verifier.sol\":18999:19078  call(sub(gas(), 2000), 8, 0, add(input, 0x20), mul(inputSize, 0x20), out, 0x20) */\n      call\n        /* \"Verifier.sol\":18988:19078  success := call(sub(gas(), 2000), 8, 0, add(input, 0x20), mul(inputSize, 0x20), out, 0x20) */\n      swap1\n      pop\n        /* \"Verifier.sol\":19155:19162  success */\n      dup1\n        /* \"Verifier.sol\":19168:19169  0 */\n      0x00\n        /* \"Verifier.sol\":19163:19183  case 0 { invalid() } */\n      dup2\n      eq\n      tag_132\n      jumpi\n        /* \"Verifier.sol\":19148:19183  switch success case 0 { invalid() } */\n      jump(tag_131)\n        /* \"Verifier.sol\":19163:19183  case 0 { invalid() } */\n    tag_132:\n        /* \"Verifier.sol\":19172:19181  invalid() */\n      invalid\n        /* \"Verifier.sol\":19148:19183  switch success case 0 { invalid() } */\n    tag_131:\n      pop\n        /* \"Verifier.sol\":19210:19217  success */\n      dup1\n        /* \"Verifier.sol\":19202:19218  require(success) */\n      tag_133\n      jumpi\n      0x00\n      dup1\n      revert\n    tag_133:\n        /* \"Verifier.sol\":19245:19246  0 */\n      0x00\n        /* \"Verifier.sol\":19235:19238  out */\n      dup3\n        /* \"Verifier.sol\":19239:19240  0 */\n      0x00\n        /* \"Verifier.sol\":19235:19241  out[0] */\n      0x01\n      dup2\n      lt\n      tag_134\n      jumpi\n      invalid\n    tag_134:\n      0x20\n      mul\n      add\n      mload\n        /* \"Verifier.sol\":19235:19246  out[0] != 0 */\n      eq\n      iszero\n        /* \"Verifier.sol\":19228:19246  return out[0] != 0 */\n      swap6\n      pop\n      pop\n      pop\n      pop\n      pop\n      pop\n        /* \"Verifier.sol\":18338:19253  function pairing(G1Point[] memory p1, G2Point[] memory p2) internal returns (bool) {... */\n      swap3\n      swap2\n      pop\n      pop\n      jump\t// out\n    tag_26:\n      mload(0x40)\n      dup1\n      0xa0\n      add\n      0x40\n      mstore\n      dup1\n      tag_135\n      tag_31\n      jump\t// in\n    tag_135:\n      dup2\n      mstore\n      0x20\n      add\n      tag_136\n      tag_95\n      jump\t// in\n    tag_136:\n      dup2\n      mstore\n      0x20\n      add\n      tag_137\n      tag_95\n      jump\t// in\n    tag_137:\n      dup2\n      mstore\n      0x20\n      add\n      tag_138\n      tag_95\n      jump\t// in\n    tag_138:\n      dup2\n      mstore\n      0x20\n      add\n      0x60\n      dup2\n      mstore\n      pop\n      swap1\n      jump\t// out\n    tag_31:\n      mload(0x40)\n      dup1\n      0x40\n      add\n      0x40\n      mstore\n      dup1\n      0x00\n      dup2\n      mstore\n      0x20\n      add\n      0x00\n      dup2\n      mstore\n      pop\n      swap1\n      jump\t// out\n    tag_63:\n      mload(0x40)\n      dup1\n      0x60\n      add\n      0x40\n      mstore\n      dup1\n      0x03\n      swap1\n      0x20\n      dup3\n      mul\n      dup1\n      calldatasize\n      dup4\n      calldatacopy\n      dup1\n      dup3\n      add\n      swap2\n      pop\n      pop\n      swap1\n      pop\n      pop\n      swap1\n      jump\t// out\n    tag_73:\n      mload(0x40)\n      dup1\n      0x80\n      add\n      0x40\n      mstore\n      dup1\n      0x04\n      swap1\n      0x20\n      dup3\n      mul\n      dup1\n      calldatasize\n      dup4\n      calldatacopy\n      dup1\n      dup3\n      add\n      swap2\n      pop\n      pop\n      swap1\n      pop\n      pop\n      swap1\n      jump\t// out\n    tag_95:\n      mload(0x40)\n      dup1\n      0x40\n      add\n      0x40\n      mstore\n      dup1\n      tag_139\n      tag_140\n      jump\t// in\n    tag_139:\n      dup2\n      mstore\n      0x20\n      add\n      tag_141\n      tag_140\n      jump\t// in\n    tag_141:\n      dup2\n      mstore\n      pop\n      swap1\n      jump\t// out\n    tag_130:\n      mload(0x40)\n      dup1\n      0x20\n      add\n      0x40\n      mstore\n      dup1\n      0x01\n      swap1\n      0x20\n      dup3\n      mul\n      dup1\n      calldatasize\n      dup4\n      calldatacopy\n      dup1\n      dup3\n      add\n      swap2\n      pop\n      pop\n      swap1\n      pop\n      pop\n      swap1\n      jump\t// out\n    tag_140:\n      mload(0x40)\n      dup1\n      0x40\n      add\n      0x40\n      mstore\n      dup1\n      0x02\n      swap1\n      0x20\n      dup3\n      mul\n      dup1\n      calldatasize\n      dup4\n      calldatacopy\n      dup1\n      dup3\n      add\n      swap2\n      pop\n      pop\n      swap1\n      pop\n      pop\n      swap1\n      jump\t// out\n        /* \"--CODEGEN--\":24:640   */\n    tag_143:\n      0x00\n        /* \"--CODEGEN--\":139:142   */\n      dup3\n        /* \"--CODEGEN--\":132:136   */\n      0x1f\n        /* \"--CODEGEN--\":124:130   */\n      dup4\n        /* \"--CODEGEN--\":120:137   */\n      add\n        /* \"--CODEGEN--\":116:143   */\n      slt\n        /* \"--CODEGEN--\":106:108   */\n      tag_145\n      jumpi\n        /* \"--CODEGEN--\":157:158   */\n      0x00\n        /* \"--CODEGEN--\":154:155   */\n      dup1\n        /* \"--CODEGEN--\":147:159   */\n      revert\n        /* \"--CODEGEN--\":106:108   */\n    tag_145:\n        /* \"--CODEGEN--\":181:185   */\n      0x01\n        /* \"--CODEGEN--\":200:278   */\n      tag_146\n        /* \"--CODEGEN--\":215:277   */\n      tag_147\n        /* \"--CODEGEN--\":270:276   */\n      dup3\n        /* \"--CODEGEN--\":215:277   */\n      jump(tag_148)\n    tag_147:\n        /* \"--CODEGEN--\":200:278   */\n      jump(tag_149)\n    tag_146:\n        /* \"--CODEGEN--\":191:278   */\n      swap2\n      pop\n        /* \"--CODEGEN--\":295:300   */\n      dup2\n        /* \"--CODEGEN--\":354:360   */\n      dup4\n        /* \"--CODEGEN--\":401:404   */\n      dup6\n        /* \"--CODEGEN--\":393:397   */\n      0x20\n        /* \"--CODEGEN--\":385:391   */\n      dup5\n        /* \"--CODEGEN--\":381:398   */\n      mul\n        /* \"--CODEGEN--\":376:379   */\n      dup3\n        /* \"--CODEGEN--\":372:399   */\n      add\n        /* \"--CODEGEN--\":369:405   */\n      gt\n        /* \"--CODEGEN--\":366:368   */\n      iszero\n      tag_150\n      jumpi\n        /* \"--CODEGEN--\":418:419   */\n      0x00\n        /* \"--CODEGEN--\":415:416   */\n      dup1\n        /* \"--CODEGEN--\":408:420   */\n      revert\n        /* \"--CODEGEN--\":366:368   */\n    tag_150:\n        /* \"--CODEGEN--\":443:444   */\n      0x00\n        /* \"--CODEGEN--\":428:634   */\n    tag_151:\n        /* \"--CODEGEN--\":453:459   */\n      dup4\n        /* \"--CODEGEN--\":450:451   */\n      dup2\n        /* \"--CODEGEN--\":447:460   */\n      lt\n        /* \"--CODEGEN--\":428:634   */\n      iszero\n      tag_153\n      jumpi\n        /* \"--CODEGEN--\":511:514   */\n      dup2\n        /* \"--CODEGEN--\":533:570   */\n      tag_154\n        /* \"--CODEGEN--\":566:569   */\n      dup9\n        /* \"--CODEGEN--\":554:564   */\n      dup3\n        /* \"--CODEGEN--\":533:570   */\n      jump(tag_155)\n    tag_154:\n        /* \"--CODEGEN--\":528:531   */\n      dup5\n        /* \"--CODEGEN--\":521:571   */\n      mstore\n        /* \"--CODEGEN--\":594:598   */\n      0x20\n        /* \"--CODEGEN--\":589:592   */\n      dup5\n        /* \"--CODEGEN--\":585:599   */\n      add\n        /* \"--CODEGEN--\":578:599   */\n      swap4\n      pop\n        /* \"--CODEGEN--\":622:626   */\n      0x20\n        /* \"--CODEGEN--\":617:620   */\n      dup4\n        /* \"--CODEGEN--\":613:627   */\n      add\n        /* \"--CODEGEN--\":606:627   */\n      swap3\n      pop\n        /* \"--CODEGEN--\":485:634   */\n      pop\n        /* \"--CODEGEN--\":475:476   */\n      0x01\n        /* \"--CODEGEN--\":472:473   */\n      dup2\n        /* \"--CODEGEN--\":468:477   */\n      add\n        /* \"--CODEGEN--\":463:477   */\n      swap1\n      pop\n        /* \"--CODEGEN--\":428:634   */\n      jump(tag_151)\n    tag_153:\n        /* \"--CODEGEN--\":432:446   */\n      pop\n        /* \"--CODEGEN--\":99:640   */\n      pop\n      pop\n      pop\n      swap3\n      swap2\n      pop\n      pop\n      jump\n        /* \"--CODEGEN--\":667:1283   */\n    tag_156:\n      0x00\n        /* \"--CODEGEN--\":782:785   */\n      dup3\n        /* \"--CODEGEN--\":775:779   */\n      0x1f\n        /* \"--CODEGEN--\":767:773   */\n      dup4\n        /* \"--CODEGEN--\":763:780   */\n      add\n        /* \"--CODEGEN--\":759:786   */\n      slt\n        /* \"--CODEGEN--\":749:751   */\n      tag_158\n      jumpi\n        /* \"--CODEGEN--\":800:801   */\n      0x00\n        /* \"--CODEGEN--\":797:798   */\n      dup1\n        /* \"--CODEGEN--\":790:802   */\n      revert\n        /* \"--CODEGEN--\":749:751   */\n    tag_158:\n        /* \"--CODEGEN--\":824:828   */\n      0x02\n        /* \"--CODEGEN--\":843:921   */\n      tag_159\n        /* \"--CODEGEN--\":858:920   */\n      tag_160\n        /* \"--CODEGEN--\":913:919   */\n      dup3\n        /* \"--CODEGEN--\":858:920   */\n      jump(tag_161)\n    tag_160:\n        /* \"--CODEGEN--\":843:921   */\n      jump(tag_149)\n    tag_159:\n        /* \"--CODEGEN--\":834:921   */\n      swap2\n      pop\n        /* \"--CODEGEN--\":938:943   */\n      dup2\n        /* \"--CODEGEN--\":997:1003   */\n      dup4\n        /* \"--CODEGEN--\":1044:1047   */\n      dup6\n        /* \"--CODEGEN--\":1036:1040   */\n      0x20\n        /* \"--CODEGEN--\":1028:1034   */\n      dup5\n        /* \"--CODEGEN--\":1024:1041   */\n      mul\n        /* \"--CODEGEN--\":1019:1022   */\n      dup3\n        /* \"--CODEGEN--\":1015:1042   */\n      add\n        /* \"--CODEGEN--\":1012:1048   */\n      gt\n        /* \"--CODEGEN--\":1009:1011   */\n      iszero\n      tag_162\n      jumpi\n        /* \"--CODEGEN--\":1061:1062   */\n      0x00\n        /* \"--CODEGEN--\":1058:1059   */\n      dup1\n        /* \"--CODEGEN--\":1051:1063   */\n      revert\n        /* \"--CODEGEN--\":1009:1011   */\n    tag_162:\n        /* \"--CODEGEN--\":1086:1087   */\n      0x00\n        /* \"--CODEGEN--\":1071:1277   */\n    tag_163:\n        /* \"--CODEGEN--\":1096:1102   */\n      dup4\n        /* \"--CODEGEN--\":1093:1094   */\n      dup2\n        /* \"--CODEGEN--\":1090:1103   */\n      lt\n        /* \"--CODEGEN--\":1071:1277   */\n      iszero\n      tag_165\n      jumpi\n        /* \"--CODEGEN--\":1154:1157   */\n      dup2\n        /* \"--CODEGEN--\":1176:1213   */\n      tag_166\n        /* \"--CODEGEN--\":1209:1212   */\n      dup9\n        /* \"--CODEGEN--\":1197:1207   */\n      dup3\n        /* \"--CODEGEN--\":1176:1213   */\n      jump(tag_155)\n    tag_166:\n        /* \"--CODEGEN--\":1171:1174   */\n      dup5\n        /* \"--CODEGEN--\":1164:1214   */\n      mstore\n        /* \"--CODEGEN--\":1237:1241   */\n      0x20\n        /* \"--CODEGEN--\":1232:1235   */\n      dup5\n        /* \"--CODEGEN--\":1228:1242   */\n      add\n        /* \"--CODEGEN--\":1221:1242   */\n      swap4\n      pop\n        /* \"--CODEGEN--\":1265:1269   */\n      0x20\n        /* \"--CODEGEN--\":1260:1263   */\n      dup4\n        /* \"--CODEGEN--\":1256:1270   */\n      add\n        /* \"--CODEGEN--\":1249:1270   */\n      swap3\n      pop\n        /* \"--CODEGEN--\":1128:1277   */\n      pop\n        /* \"--CODEGEN--\":1118:1119   */\n      0x01\n        /* \"--CODEGEN--\":1115:1116   */\n      dup2\n        /* \"--CODEGEN--\":1111:1120   */\n      add\n        /* \"--CODEGEN--\":1106:1120   */\n      swap1\n      pop\n        /* \"--CODEGEN--\":1071:1277   */\n      jump(tag_163)\n    tag_165:\n        /* \"--CODEGEN--\":1075:1089   */\n      pop\n        /* \"--CODEGEN--\":742:1283   */\n      pop\n      pop\n      pop\n      swap3\n      swap2\n      pop\n      pop\n      jump\n        /* \"--CODEGEN--\":1320:1781   */\n    tag_167:\n      0x00\n        /* \"--CODEGEN--\":1434:1438   */\n      0x40\n        /* \"--CODEGEN--\":1422:1431   */\n      dup3\n        /* \"--CODEGEN--\":1417:1420   */\n      dup5\n        /* \"--CODEGEN--\":1413:1432   */\n      sub\n        /* \"--CODEGEN--\":1409:1439   */\n      slt\n        /* \"--CODEGEN--\":1406:1408   */\n      iszero\n      tag_169\n      jumpi\n        /* \"--CODEGEN--\":1452:1453   */\n      0x00\n        /* \"--CODEGEN--\":1449:1450   */\n      dup1\n        /* \"--CODEGEN--\":1442:1454   */\n      revert\n        /* \"--CODEGEN--\":1406:1408   */\n    tag_169:\n        /* \"--CODEGEN--\":1470:1490   */\n      tag_170\n        /* \"--CODEGEN--\":1485:1489   */\n      0x40\n        /* \"--CODEGEN--\":1470:1490   */\n      jump(tag_149)\n    tag_170:\n        /* \"--CODEGEN--\":1461:1490   */\n      swap1\n      pop\n        /* \"--CODEGEN--\":1537:1538   */\n      0x00\n        /* \"--CODEGEN--\":1569:1618   */\n      tag_171\n        /* \"--CODEGEN--\":1614:1617   */\n      dup5\n        /* \"--CODEGEN--\":1605:1611   */\n      dup3\n        /* \"--CODEGEN--\":1594:1603   */\n      dup6\n        /* \"--CODEGEN--\":1590:1612   */\n      add\n        /* \"--CODEGEN--\":1569:1618   */\n      jump(tag_155)\n    tag_171:\n        /* \"--CODEGEN--\":1562:1566   */\n      0x00\n        /* \"--CODEGEN--\":1555:1560   */\n      dup4\n        /* \"--CODEGEN--\":1551:1567   */\n      add\n        /* \"--CODEGEN--\":1544:1619   */\n      mstore\n        /* \"--CODEGEN--\":1500:1630   */\n      pop\n        /* \"--CODEGEN--\":1677:1679   */\n      0x20\n        /* \"--CODEGEN--\":1710:1759   */\n      tag_172\n        /* \"--CODEGEN--\":1755:1758   */\n      dup5\n        /* \"--CODEGEN--\":1746:1752   */\n      dup3\n        /* \"--CODEGEN--\":1735:1744   */\n      dup6\n        /* \"--CODEGEN--\":1731:1753   */\n      add\n        /* \"--CODEGEN--\":1710:1759   */\n      jump(tag_155)\n    tag_172:\n        /* \"--CODEGEN--\":1703:1707   */\n      0x20\n        /* \"--CODEGEN--\":1696:1701   */\n      dup4\n        /* \"--CODEGEN--\":1692:1708   */\n      add\n        /* \"--CODEGEN--\":1685:1760   */\n      mstore\n        /* \"--CODEGEN--\":1640:1771   */\n      pop\n        /* \"--CODEGEN--\":1400:1781   */\n      swap3\n      swap2\n      pop\n      pop\n      jump\n        /* \"--CODEGEN--\":1817:2324   */\n    tag_173:\n      0x00\n        /* \"--CODEGEN--\":1931:1935   */\n      0x80\n        /* \"--CODEGEN--\":1919:1928   */\n      dup3\n        /* \"--CODEGEN--\":1914:1917   */\n      dup5\n        /* \"--CODEGEN--\":1910:1929   */\n      sub\n        /* \"--CODEGEN--\":1906:1936   */\n      slt\n        /* \"--CODEGEN--\":1903:1905   */\n      iszero\n      tag_175\n      jumpi\n        /* \"--CODEGEN--\":1949:1950   */\n      0x00\n        /* \"--CODEGEN--\":1946:1947   */\n      dup1\n        /* \"--CODEGEN--\":1939:1951   */\n      revert\n        /* \"--CODEGEN--\":1903:1905   */\n    tag_175:\n        /* \"--CODEGEN--\":1967:1987   */\n      tag_176\n        /* \"--CODEGEN--\":1982:1986   */\n      0x40\n        /* \"--CODEGEN--\":1967:1987   */\n      jump(tag_149)\n    tag_176:\n        /* \"--CODEGEN--\":1958:1987   */\n      swap1\n      pop\n        /* \"--CODEGEN--\":2034:2035   */\n      0x00\n        /* \"--CODEGEN--\":2066:2138   */\n      tag_177\n        /* \"--CODEGEN--\":2134:2137   */\n      dup5\n        /* \"--CODEGEN--\":2125:2131   */\n      dup3\n        /* \"--CODEGEN--\":2114:2123   */\n      dup6\n        /* \"--CODEGEN--\":2110:2132   */\n      add\n        /* \"--CODEGEN--\":2066:2138   */\n      jump(tag_156)\n    tag_177:\n        /* \"--CODEGEN--\":2059:2063   */\n      0x00\n        /* \"--CODEGEN--\":2052:2057   */\n      dup4\n        /* \"--CODEGEN--\":2048:2064   */\n      add\n        /* \"--CODEGEN--\":2041:2139   */\n      mstore\n        /* \"--CODEGEN--\":1997:2150   */\n      pop\n        /* \"--CODEGEN--\":2197:2199   */\n      0x40\n        /* \"--CODEGEN--\":2230:2302   */\n      tag_178\n        /* \"--CODEGEN--\":2298:2301   */\n      dup5\n        /* \"--CODEGEN--\":2289:2295   */\n      dup3\n        /* \"--CODEGEN--\":2278:2287   */\n      dup6\n        /* \"--CODEGEN--\":2274:2296   */\n      add\n        /* \"--CODEGEN--\":2230:2302   */\n      jump(tag_156)\n    tag_178:\n        /* \"--CODEGEN--\":2223:2227   */\n      0x20\n        /* \"--CODEGEN--\":2216:2221   */\n      dup4\n        /* \"--CODEGEN--\":2212:2228   */\n      add\n        /* \"--CODEGEN--\":2205:2303   */\n      mstore\n        /* \"--CODEGEN--\":2160:2314   */\n      pop\n        /* \"--CODEGEN--\":1897:2324   */\n      swap3\n      swap2\n      pop\n      pop\n      jump\n        /* \"--CODEGEN--\":2359:3037   */\n    tag_179:\n      0x00\n        /* \"--CODEGEN--\":2471:2477   */\n      0x0100\n        /* \"--CODEGEN--\":2459:2468   */\n      dup3\n        /* \"--CODEGEN--\":2454:2457   */\n      dup5\n        /* \"--CODEGEN--\":2450:2469   */\n      sub\n        /* \"--CODEGEN--\":2446:2478   */\n      slt\n        /* \"--CODEGEN--\":2443:2445   */\n      iszero\n      tag_181\n      jumpi\n        /* \"--CODEGEN--\":2491:2492   */\n      0x00\n        /* \"--CODEGEN--\":2488:2489   */\n      dup1\n        /* \"--CODEGEN--\":2481:2493   */\n      revert\n        /* \"--CODEGEN--\":2443:2445   */\n    tag_181:\n        /* \"--CODEGEN--\":2509:2529   */\n      tag_182\n        /* \"--CODEGEN--\":2524:2528   */\n      0x60\n        /* \"--CODEGEN--\":2509:2529   */\n      jump(tag_149)\n    tag_182:\n        /* \"--CODEGEN--\":2500:2529   */\n      swap1\n      pop\n        /* \"--CODEGEN--\":2576:2577   */\n      0x00\n        /* \"--CODEGEN--\":2608:2682   */\n      tag_183\n        /* \"--CODEGEN--\":2678:2681   */\n      dup5\n        /* \"--CODEGEN--\":2669:2675   */\n      dup3\n        /* \"--CODEGEN--\":2658:2667   */\n      dup6\n        /* \"--CODEGEN--\":2654:2676   */\n      add\n        /* \"--CODEGEN--\":2608:2682   */\n      jump(tag_167)\n    tag_183:\n        /* \"--CODEGEN--\":2601:2605   */\n      0x00\n        /* \"--CODEGEN--\":2594:2599   */\n      dup4\n        /* \"--CODEGEN--\":2590:2606   */\n      add\n        /* \"--CODEGEN--\":2583:2683   */\n      mstore\n        /* \"--CODEGEN--\":2539:2694   */\n      pop\n        /* \"--CODEGEN--\":2741:2743   */\n      0x40\n        /* \"--CODEGEN--\":2774:2848   */\n      tag_184\n        /* \"--CODEGEN--\":2844:2847   */\n      dup5\n        /* \"--CODEGEN--\":2835:2841   */\n      dup3\n        /* \"--CODEGEN--\":2824:2833   */\n      dup6\n        /* \"--CODEGEN--\":2820:2842   */\n      add\n        /* \"--CODEGEN--\":2774:2848   */\n      jump(tag_173)\n    tag_184:\n        /* \"--CODEGEN--\":2767:2771   */\n      0x20\n        /* \"--CODEGEN--\":2760:2765   */\n      dup4\n        /* \"--CODEGEN--\":2756:2772   */\n      add\n        /* \"--CODEGEN--\":2749:2849   */\n      mstore\n        /* \"--CODEGEN--\":2704:2860   */\n      pop\n        /* \"--CODEGEN--\":2907:2910   */\n      0xc0\n        /* \"--CODEGEN--\":2941:3015   */\n      tag_185\n        /* \"--CODEGEN--\":3011:3014   */\n      dup5\n        /* \"--CODEGEN--\":3002:3008   */\n      dup3\n        /* \"--CODEGEN--\":2991:3000   */\n      dup6\n        /* \"--CODEGEN--\":2987:3009   */\n      add\n        /* \"--CODEGEN--\":2941:3015   */\n      jump(tag_167)\n    tag_185:\n        /* \"--CODEGEN--\":2934:2938   */\n      0x40\n        /* \"--CODEGEN--\":2927:2932   */\n      dup4\n        /* \"--CODEGEN--\":2923:2939   */\n      add\n        /* \"--CODEGEN--\":2916:3016   */\n      mstore\n        /* \"--CODEGEN--\":2870:3027   */\n      pop\n        /* \"--CODEGEN--\":2437:3037   */\n      swap3\n      swap2\n      pop\n      pop\n      jump\n        /* \"--CODEGEN--\":3044:3174   */\n    tag_155:\n      0x00\n        /* \"--CODEGEN--\":3124:3130   */\n      dup2\n        /* \"--CODEGEN--\":3111:3131   */\n      calldataload\n        /* \"--CODEGEN--\":3102:3131   */\n      swap1\n      pop\n        /* \"--CODEGEN--\":3136:3169   */\n      tag_187\n        /* \"--CODEGEN--\":3163:3168   */\n      dup2\n        /* \"--CODEGEN--\":3136:3169   */\n      jump(tag_188)\n    tag_187:\n        /* \"--CODEGEN--\":3096:3174   */\n      swap3\n      swap2\n      pop\n      pop\n      jump\n        /* \"--CODEGEN--\":3181:3641   */\n    tag_6:\n      0x00\n      dup1\n        /* \"--CODEGEN--\":3348:3351   */\n      0x0120\n        /* \"--CODEGEN--\":3336:3345   */\n      dup4\n        /* \"--CODEGEN--\":3327:3334   */\n      dup6\n        /* \"--CODEGEN--\":3323:3346   */\n      sub\n        /* \"--CODEGEN--\":3319:3352   */\n      slt\n        /* \"--CODEGEN--\":3316:3318   */\n      iszero\n      tag_190\n      jumpi\n        /* \"--CODEGEN--\":3365:3366   */\n      0x00\n        /* \"--CODEGEN--\":3362:3363   */\n      dup1\n        /* \"--CODEGEN--\":3355:3367   */\n      revert\n        /* \"--CODEGEN--\":3316:3318   */\n    tag_190:\n        /* \"--CODEGEN--\":3400:3401   */\n      0x00\n        /* \"--CODEGEN--\":3417:3493   */\n      tag_191\n        /* \"--CODEGEN--\":3485:3492   */\n      dup6\n        /* \"--CODEGEN--\":3476:3482   */\n      dup3\n        /* \"--CODEGEN--\":3465:3474   */\n      dup7\n        /* \"--CODEGEN--\":3461:3483   */\n      add\n        /* \"--CODEGEN--\":3417:3493   */\n      jump(tag_179)\n    tag_191:\n        /* \"--CODEGEN--\":3407:3493   */\n      swap3\n      pop\n        /* \"--CODEGEN--\":3379:3499   */\n      pop\n        /* \"--CODEGEN--\":3530:3533   */\n      0x0100\n        /* \"--CODEGEN--\":3549:3625   */\n      tag_192\n        /* \"--CODEGEN--\":3617:3624   */\n      dup6\n        /* \"--CODEGEN--\":3608:3614   */\n      dup3\n        /* \"--CODEGEN--\":3597:3606   */\n      dup7\n        /* \"--CODEGEN--\":3593:3615   */\n      add\n        /* \"--CODEGEN--\":3549:3625   */\n      jump(tag_143)\n    tag_192:\n        /* \"--CODEGEN--\":3539:3625   */\n      swap2\n      pop\n        /* \"--CODEGEN--\":3509:3631   */\n      pop\n        /* \"--CODEGEN--\":3310:3641   */\n      swap3\n      pop\n      swap3\n      swap1\n      pop\n      jump\n        /* \"--CODEGEN--\":3648:3752   */\n    tag_193:\n        /* \"--CODEGEN--\":3725:3746   */\n      tag_195\n        /* \"--CODEGEN--\":3740:3745   */\n      dup2\n        /* \"--CODEGEN--\":3725:3746   */\n      jump(tag_196)\n    tag_195:\n        /* \"--CODEGEN--\":3720:3723   */\n      dup3\n        /* \"--CODEGEN--\":3713:3747   */\n      mstore\n        /* \"--CODEGEN--\":3707:3752   */\n      pop\n      pop\n      jump\n        /* \"--CODEGEN--\":3760:4131   */\n    tag_197:\n      0x00\n        /* \"--CODEGEN--\":3920:3987   */\n      tag_199\n        /* \"--CODEGEN--\":3984:3986   */\n      0x22\n        /* \"--CODEGEN--\":3979:3982   */\n      dup4\n        /* \"--CODEGEN--\":3920:3987   */\n      jump(tag_200)\n    tag_199:\n        /* \"--CODEGEN--\":3913:3987   */\n      swap2\n      pop\n        /* \"--CODEGEN--\":4020:4054   */\n      0x5472616e73616374696f6e207375636365737366756c6c792076657269666965\n        /* \"--CODEGEN--\":4016:4017   */\n      0x00\n        /* \"--CODEGEN--\":4011:4014   */\n      dup4\n        /* \"--CODEGEN--\":4007:4018   */\n      add\n        /* \"--CODEGEN--\":4000:4055   */\n      mstore\n        /* \"--CODEGEN--\":4089:4093   */\n      0x642e000000000000000000000000000000000000000000000000000000000000\n        /* \"--CODEGEN--\":4084:4086   */\n      0x20\n        /* \"--CODEGEN--\":4079:4082   */\n      dup4\n        /* \"--CODEGEN--\":4075:4087   */\n      add\n        /* \"--CODEGEN--\":4068:4094   */\n      mstore\n        /* \"--CODEGEN--\":4122:4124   */\n      0x40\n        /* \"--CODEGEN--\":4117:4120   */\n      dup3\n        /* \"--CODEGEN--\":4113:4125   */\n      add\n        /* \"--CODEGEN--\":4106:4125   */\n      swap1\n      pop\n        /* \"--CODEGEN--\":3906:4131   */\n      swap2\n      swap1\n      pop\n      jump\n        /* \"--CODEGEN--\":4139:4349   */\n    tag_9:\n      0x00\n        /* \"--CODEGEN--\":4260:4262   */\n      0x20\n        /* \"--CODEGEN--\":4249:4258   */\n      dup3\n        /* \"--CODEGEN--\":4245:4263   */\n      add\n        /* \"--CODEGEN--\":4237:4263   */\n      swap1\n      pop\n        /* \"--CODEGEN--\":4274:4339   */\n      tag_202\n        /* \"--CODEGEN--\":4336:4337   */\n      0x00\n        /* \"--CODEGEN--\":4325:4334   */\n      dup4\n        /* \"--CODEGEN--\":4321:4338   */\n      add\n        /* \"--CODEGEN--\":4312:4318   */\n      dup5\n        /* \"--CODEGEN--\":4274:4339   */\n      jump(tag_193)\n    tag_202:\n        /* \"--CODEGEN--\":4231:4349   */\n      swap3\n      swap2\n      pop\n      pop\n      jump\n        /* \"--CODEGEN--\":4356:4772   */\n    tag_22:\n      0x00\n        /* \"--CODEGEN--\":4556:4558   */\n      0x20\n        /* \"--CODEGEN--\":4545:4554   */\n      dup3\n        /* \"--CODEGEN--\":4541:4559   */\n      add\n        /* \"--CODEGEN--\":4533:4559   */\n      swap1\n      pop\n        /* \"--CODEGEN--\":4606:4615   */\n      dup2\n        /* \"--CODEGEN--\":4600:4604   */\n      dup2\n        /* \"--CODEGEN--\":4596:4616   */\n      sub\n        /* \"--CODEGEN--\":4592:4593   */\n      0x00\n        /* \"--CODEGEN--\":4581:4590   */\n      dup4\n        /* \"--CODEGEN--\":4577:4594   */\n      add\n        /* \"--CODEGEN--\":4570:4617   */\n      mstore\n        /* \"--CODEGEN--\":4631:4762   */\n      tag_204\n        /* \"--CODEGEN--\":4757:4761   */\n      dup2\n        /* \"--CODEGEN--\":4631:4762   */\n      jump(tag_197)\n    tag_204:\n        /* \"--CODEGEN--\":4623:4762   */\n      swap1\n      pop\n        /* \"--CODEGEN--\":4527:4772   */\n      swap2\n      swap1\n      pop\n      jump\n        /* \"--CODEGEN--\":4779:5035   */\n    tag_149:\n      0x00\n        /* \"--CODEGEN--\":4841:4843   */\n      0x40\n        /* \"--CODEGEN--\":4835:4844   */\n      mload\n        /* \"--CODEGEN--\":4825:4844   */\n      swap1\n      pop\n        /* \"--CODEGEN--\":4879:4883   */\n      dup2\n        /* \"--CODEGEN--\":4871:4877   */\n      dup2\n        /* \"--CODEGEN--\":4867:4884   */\n      add\n        /* \"--CODEGEN--\":4978:4984   */\n      dup2\n        /* \"--CODEGEN--\":4966:4976   */\n      dup2\n        /* \"--CODEGEN--\":4963:4985   */\n      lt\n        /* \"--CODEGEN--\":4942:4960   */\n      0xffffffffffffffff\n        /* \"--CODEGEN--\":4930:4940   */\n      dup3\n        /* \"--CODEGEN--\":4927:4961   */\n      gt\n        /* \"--CODEGEN--\":4924:4986   */\n      or\n        /* \"--CODEGEN--\":4921:4923   */\n      iszero\n      tag_206\n      jumpi\n        /* \"--CODEGEN--\":4999:5000   */\n      0x00\n        /* \"--CODEGEN--\":4996:4997   */\n      dup1\n        /* \"--CODEGEN--\":4989:5001   */\n      revert\n        /* \"--CODEGEN--\":4921:4923   */\n    tag_206:\n        /* \"--CODEGEN--\":5019:5029   */\n      dup1\n        /* \"--CODEGEN--\":5015:5017   */\n      0x40\n        /* \"--CODEGEN--\":5008:5030   */\n      mstore\n        /* \"--CODEGEN--\":4819:5035   */\n      pop\n      swap2\n      swap1\n      pop\n      jump\n        /* \"--CODEGEN--\":5042:5286   */\n    tag_148:\n      0x00\n        /* \"--CODEGEN--\":5199:5217   */\n      0xffffffffffffffff\n        /* \"--CODEGEN--\":5191:5197   */\n      dup3\n        /* \"--CODEGEN--\":5188:5218   */\n      gt\n        /* \"--CODEGEN--\":5185:5187   */\n      iszero\n      tag_208\n      jumpi\n        /* \"--CODEGEN--\":5231:5232   */\n      0x00\n        /* \"--CODEGEN--\":5228:5229   */\n      dup1\n        /* \"--CODEGEN--\":5221:5233   */\n      revert\n        /* \"--CODEGEN--\":5185:5187   */\n    tag_208:\n        /* \"--CODEGEN--\":5266:5270   */\n      0x20\n        /* \"--CODEGEN--\":5258:5264   */\n      dup3\n        /* \"--CODEGEN--\":5254:5271   */\n      mul\n        /* \"--CODEGEN--\":5246:5271   */\n      swap1\n      pop\n        /* \"--CODEGEN--\":5122:5286   */\n      swap2\n      swap1\n      pop\n      jump\n        /* \"--CODEGEN--\":5293:5537   */\n    tag_161:\n      0x00\n        /* \"--CODEGEN--\":5450:5468   */\n      0xffffffffffffffff\n        /* \"--CODEGEN--\":5442:5448   */\n      dup3\n        /* \"--CODEGEN--\":5439:5469   */\n      gt\n        /* \"--CODEGEN--\":5436:5438   */\n      iszero\n      tag_210\n      jumpi\n        /* \"--CODEGEN--\":5482:5483   */\n      0x00\n        /* \"--CODEGEN--\":5479:5480   */\n      dup1\n        /* \"--CODEGEN--\":5472:5484   */\n      revert\n        /* \"--CODEGEN--\":5436:5438   */\n    tag_210:\n        /* \"--CODEGEN--\":5517:5521   */\n      0x20\n        /* \"--CODEGEN--\":5509:5515   */\n      dup3\n        /* \"--CODEGEN--\":5505:5522   */\n      mul\n        /* \"--CODEGEN--\":5497:5522   */\n      swap1\n      pop\n        /* \"--CODEGEN--\":5373:5537   */\n      swap2\n      swap1\n      pop\n      jump\n        /* \"--CODEGEN--\":5545:5708   */\n    tag_200:\n      0x00\n        /* \"--CODEGEN--\":5660:5666   */\n      dup3\n        /* \"--CODEGEN--\":5655:5658   */\n      dup3\n        /* \"--CODEGEN--\":5648:5667   */\n      mstore\n        /* \"--CODEGEN--\":5697:5701   */\n      0x20\n        /* \"--CODEGEN--\":5692:5695   */\n      dup3\n        /* \"--CODEGEN--\":5688:5702   */\n      add\n        /* \"--CODEGEN--\":5673:5702   */\n      swap1\n      pop\n        /* \"--CODEGEN--\":5641:5708   */\n      swap3\n      swap2\n      pop\n      pop\n      jump\n        /* \"--CODEGEN--\":5716:5801   */\n    tag_196:\n      0x00\n        /* \"--CODEGEN--\":5789:5794   */\n      dup2\n        /* \"--CODEGEN--\":5782:5795   */\n      iszero\n        /* \"--CODEGEN--\":5775:5796   */\n      iszero\n        /* \"--CODEGEN--\":5764:5796   */\n      swap1\n      pop\n        /* \"--CODEGEN--\":5758:5801   */\n      swap2\n      swap1\n      pop\n      jump\n        /* \"--CODEGEN--\":5808:5880   */\n    tag_213:\n      0x00\n        /* \"--CODEGEN--\":5870:5875   */\n      dup2\n        /* \"--CODEGEN--\":5859:5875   */\n      swap1\n      pop\n        /* \"--CODEGEN--\":5853:5880   */\n      swap2\n      swap1\n      pop\n      jump\n        /* \"--CODEGEN--\":5887:6004   */\n    tag_188:\n        /* \"--CODEGEN--\":5956:5980   */\n      tag_216\n        /* \"--CODEGEN--\":5974:5979   */\n      dup2\n        /* \"--CODEGEN--\":5956:5980   */\n      jump(tag_213)\n    tag_216:\n        /* \"--CODEGEN--\":5949:5954   */\n      dup2\n        /* \"--CODEGEN--\":5946:5981   */\n      eq\n        /* \"--CODEGEN--\":5936:5938   */\n      tag_217\n      jumpi\n        /* \"--CODEGEN--\":5995:5996   */\n      0x00\n        /* \"--CODEGEN--\":5992:5993   */\n      dup1\n        /* \"--CODEGEN--\":5985:5997   */\n      revert\n        /* \"--CODEGEN--\":5936:5938   */\n    tag_217:\n        /* \"--CODEGEN--\":5930:6004   */\n      pop\n      jump\n\n    auxdata: 0xa264697066735822122097a6d039ed14ca75c38dcbd7d9c1032ced9a98df4d89965180f7ea568768b5d464736f6c634300060a0033\n}\n","bytecode":{"linkReferences":{},"object":"608060405234801561001057600080fd5b5061116d806100206000396000f3fe608060405234801561001057600080fd5b506004361061002b5760003560e01c8063f48d772914610030575b600080fd5b61004a60048036038101906100459190610f9a565b610060565b604051610057919061104d565b60405180910390f35b60006060600167ffffffffffffffff8111801561007c57600080fd5b506040519080825280602002602001820160405280156100ab5781602001602082028036833780820191505090505b50905060008090505b60018110156100f3578381600181106100c957fe5b60200201518282815181106100da57fe5b60200260200101818152505080806001019150506100b4565b5060006101008286610151565b1415610145577f3f3cfdb26fb5f9f1786ab4f1a1f9cd4c0b5e726cbdfc26e495261731aad44e3960405161013390611068565b60405180910390a1600191505061014b565b60009150505b92915050565b6000807f30644e72e131a029b85045b68181585d2833e84879b9709143e1f593f0000001905061017f610c95565b6101876102c3565b905080608001515160018651011461019e57600080fd5b6101a6610cdc565b6040518060400160405280600081526020016000815250905060008090505b865181101561023c57838782815181106101db57fe5b6020026020010151106101ed57600080fd5b61022d826102288560800151600185018151811061020757fe5b60200260200101518a858151811061021b57fe5b60200260200101516106b6565b61074a565b915080806001019150506101c5565b5061025f81836080015160008151811061025257fe5b602002602001015161074a565b90506102a585600001518660200151610277846107fd565b85604001516102898a604001516107fd565b876060015161029b89600001516107fd565b8960200151610897565b6102b557600193505050506102bd565b600093505050505b92915050565b6102cb610c95565b60405180604001604052807f1936c240636390dc823e3a728e94b208eb53c6756d81da57ec3425e05d43ac1081526020017f2d70ff78e8216bf29d58923a686d9738278b8ce2fd822e197c85b09286d155668152508160000181905250604051806040016040528060405180604001604052807f2b4daf047abe2e7f0b311118c1b963b63695dc0d769cea78849604434de055bf81526020017f29c13ecb6f33dbc4b3b8a02e2e255511ce4c26a8a2f299efcc94caf2de4fce00815250815260200160405180604001604052807f1da9020008df7f549751f8a251af3b2dc4a2ad3e0870de54acaedd9fc1b47e1781526020017f25ea0d7e2b29de431b86a943db30dbf4d98f68df9ca8a9628d14d1591e817d908152508152508160200181905250604051806040016040528060405180604001604052807f011016e22ae045444f50fb80f246ec486c7e02af09132cd38c4fcf484983e4f281526020017ee83c788c2878d1d5eba3ed49b0d81e4c0487dedc3e4d1c2baab5833785b62f815250815260200160405180604001604052807f05eb89e741ed5b5d611cebf92d1ed02cd6f3311089f0d400df7d9ced5a48fd4181526020017f132a90a3b0d369ccd66e2a5ba04a935e44d8ad5dca93a76bba592a578130a9118152508152508160400181905250604051806040016040528060405180604001604052807f065f6a3323a2abffd621fc263f348eb914904b68d5897729ae34a6b9d33f085281526020017f0c3b60f59d3bd50328a04c0ff6d979199685d0526f89f6ac29d6174ce24707a2815250815260200160405180604001604052807f26e7ebce2b44efef6b6315938e33f0a8ecc82dbad635c9efa681ed85bbb5998281526020017f12e0f3721230a0f38f6c9913048d5230fd2615ef3ff7f6ee4b20dfe0bdea1a868152508152508160600181905250600267ffffffffffffffff8111801561058e57600080fd5b506040519080825280602002602001820160405280156105c857816020015b6105b5610cdc565b8152602001906001900390816105ad5790505b50816080018190525060405180604001604052807f07f481a1cb7cea7eb760d12aa4d1b61ab95a34d63783e68b0bbc9a524c38813581526020017f0b723281a130974c10d5bc702601b943cfb263864afd4ce5c4c0e61d8619e132815250816080015160008151811061063757fe5b602002602001018190525060405180604001604052807f1f86c8f7610cced630b8f704def6d0756a43c68d012b98b3801c6b564900984981526020017f2b6b7f92ab24620816bde4842e27fa635932dcecdab53c799403f5bca971891481525081608001516001815181106106a857fe5b602002602001018190525090565b6106be610cdc565b6106c6610cf6565b8360000151816000600381106106d857fe5b6020020181815250508360200151816001600381106106f357fe5b602002018181525050828160026003811061070a57fe5b6020020181815250506000606083608084600060076107d05a03f19050806000811461073557610737565bfe5b508061074257600080fd5b505092915050565b610752610cdc565b61075a610d18565b83600001518160006004811061076c57fe5b60200201818152505083602001518160016004811061078757fe5b6020020181815250508260000151816002600481106107a257fe5b6020020181815250508260200151816003600481106107bd57fe5b602002018181525050600060608360c084600060066107d05a03f1905080600081146107e8576107ea565bfe5b50806107f557600080fd5b505092915050565b610805610cdc565b60007f30644e72e131a029b85045b68181585d97816a916871ca8d3c208c16d87cfd47905060008360000151148015610842575060008360200151145b15610866576040518060400160405280600081526020016000815250915050610892565b6040518060400160405280846000015181526020018285602001518161088857fe5b0683038152509150505b919050565b60006060600467ffffffffffffffff811180156108b357600080fd5b506040519080825280602002602001820160405280156108ed57816020015b6108da610cdc565b8152602001906001900390816108d25790505b5090506060600467ffffffffffffffff8111801561090a57600080fd5b5060405190808252806020026020018201604052801561094457816020015b610931610d3a565b8152602001906001900390816109295790505b5090508a8260008151811061095557fe5b6020026020010181905250888260018151811061096e57fe5b6020026020010181905250868260028151811061098757fe5b602002602001018190525084826003815181106109a057fe5b602002602001018190525089816000815181106109b957fe5b602002602001018190525087816001815181106109d257fe5b602002602001018190525085816002815181106109eb57fe5b60200260200101819052508381600381518110610a0457fe5b6020026020010181905250610a198282610a29565b9250505098975050505050505050565b60008151835114610a3957600080fd5b600083519050600060068202905060608167ffffffffffffffff81118015610a6057600080fd5b50604051908082528060200260200182016040528015610a8f5781602001602082028036833780820191505090505b50905060008090505b83811015610c3557868181518110610aac57fe5b602002602001015160000151826000600684020181518110610aca57fe5b602002602001018181525050868181518110610ae257fe5b602002602001015160200151826001600684020181518110610b0057fe5b602002602001018181525050858181518110610b1857fe5b602002602001015160000151600060028110610b3057fe5b6020020151826002600684020181518110610b4757fe5b602002602001018181525050858181518110610b5f57fe5b602002602001015160000151600160028110610b7757fe5b6020020151826003600684020181518110610b8e57fe5b602002602001018181525050858181518110610ba657fe5b602002602001015160200151600060028110610bbe57fe5b6020020151826004600684020181518110610bd557fe5b602002602001018181525050858181518110610bed57fe5b602002602001015160200151600160028110610c0557fe5b6020020151826005600684020181518110610c1c57fe5b6020026020010181815250508080600101915050610a98565b50610c3e610d60565b60006020826020860260208601600060086107d05a03f190508060008114610c6557610c67565bfe5b5080610c7257600080fd5b600082600060018110610c8157fe5b602002015114159550505050505092915050565b6040518060a00160405280610ca8610cdc565b8152602001610cb5610d3a565b8152602001610cc2610d3a565b8152602001610ccf610d3a565b8152602001606081525090565b604051806040016040528060008152602001600081525090565b6040518060600160405280600390602082028036833780820191505090505090565b6040518060800160405280600490602082028036833780820191505090505090565b6040518060400160405280610d4d610d82565b8152602001610d5a610d82565b81525090565b6040518060200160405280600190602082028036833780820191505090505090565b6040518060400160405280600290602082028036833780820191505090505090565b600082601f830112610db557600080fd5b6001610dc8610dc3826110b5565b611088565b91508183856020840282011115610dde57600080fd5b60005b83811015610e0e5781610df48882610f85565b845260208401935060208301925050600181019050610de1565b5050505092915050565b600082601f830112610e2957600080fd5b6002610e3c610e37826110d7565b611088565b91508183856020840282011115610e5257600080fd5b60005b83811015610e825781610e688882610f85565b845260208401935060208301925050600181019050610e55565b5050505092915050565b600060408284031215610e9e57600080fd5b610ea86040611088565b90506000610eb884828501610f85565b6000830152506020610ecc84828501610f85565b60208301525092915050565b600060808284031215610eea57600080fd5b610ef46040611088565b90506000610f0484828501610e18565b6000830152506040610f1884828501610e18565b60208301525092915050565b60006101008284031215610f3757600080fd5b610f416060611088565b90506000610f5184828501610e8c565b6000830152506040610f6584828501610ed8565b60208301525060c0610f7984828501610e8c565b60408301525092915050565b600081359050610f9481611120565b92915050565b6000806101208385031215610fae57600080fd5b6000610fbc85828601610f24565b925050610100610fce85828601610da4565b9150509250929050565b610fe18161110a565b82525050565b6000610ff46022836110f9565b91507f5472616e73616374696f6e207375636365737366756c6c79207665726966696560008301527f642e0000000000000000000000000000000000000000000000000000000000006020830152604082019050919050565b60006020820190506110626000830184610fd8565b92915050565b6000602082019050818103600083015261108181610fe7565b9050919050565b6000604051905081810181811067ffffffffffffffff821117156110ab57600080fd5b8060405250919050565b600067ffffffffffffffff8211156110cc57600080fd5b602082029050919050565b600067ffffffffffffffff8211156110ee57600080fd5b602082029050919050565b600082825260208201905092915050565b60008115159050919050565b6000819050919050565b61112981611116565b811461113457600080fd5b5056fea264697066735822122097a6d039ed14ca75c38dcbd7d9c1032ced9a98df4d89965180f7ea568768b5d464736f6c634300060a0033","opcodes":"PUSH1 0x80 PUSH1 0x40 MSTORE CALLVALUE DUP1 ISZERO PUSH2 0x10 JUMPI PUSH1 0x0 DUP1 REVERT JUMPDEST POP PUSH2 0x116D DUP1 PUSH2 0x20 PUSH1 0x0 CODECOPY PUSH1 0x0 RETURN INVALID PUSH1 0x80 PUSH1 0x40 MSTORE CALLVALUE DUP1 ISZERO PUSH2 0x10 JUMPI PUSH1 0x0 DUP1 REVERT JUMPDEST POP PUSH1 0x4 CALLDATASIZE LT PUSH2 0x2B JUMPI PUSH1 0x0 CALLDATALOAD PUSH1 0xE0 SHR DUP1 PUSH4 0xF48D7729 EQ PUSH2 0x30 JUMPI JUMPDEST PUSH1 0x0 DUP1 REVERT JUMPDEST PUSH2 0x4A PUSH1 0x4 DUP1 CALLDATASIZE SUB DUP2 ADD SWAP1 PUSH2 0x45 SWAP2 SWAP1 PUSH2 0xF9A JUMP JUMPDEST PUSH2 0x60 JUMP JUMPDEST PUSH1 0x40 MLOAD PUSH2 0x57 SWAP2 SWAP1 PUSH2 0x104D JUMP JUMPDEST PUSH1 0x40 MLOAD DUP1 SWAP2 SUB SWAP1 RETURN JUMPDEST PUSH1 0x0 PUSH1 0x60 PUSH1 0x1 PUSH8 0xFFFFFFFFFFFFFFFF DUP2 GT DUP1 ISZERO PUSH2 0x7C JUMPI PUSH1 0x0 DUP1 REVERT JUMPDEST POP PUSH1 0x40 MLOAD SWAP1 DUP1 DUP3 MSTORE DUP1 PUSH1 0x20 MUL PUSH1 0x20 ADD DUP3 ADD PUSH1 0x40 MSTORE DUP1 ISZERO PUSH2 0xAB JUMPI DUP2 PUSH1 0x20 ADD PUSH1 0x20 DUP3 MUL DUP1 CALLDATASIZE DUP4 CALLDATACOPY DUP1 DUP3 ADD SWAP2 POP POP SWAP1 POP JUMPDEST POP SWAP1 POP PUSH1 0x0 DUP1 SWAP1 POP JUMPDEST PUSH1 0x1 DUP2 LT ISZERO PUSH2 0xF3 JUMPI DUP4 DUP2 PUSH1 0x1 DUP2 LT PUSH2 0xC9 JUMPI INVALID JUMPDEST PUSH1 0x20 MUL ADD MLOAD DUP3 DUP3 DUP2 MLOAD DUP2 LT PUSH2 0xDA JUMPI INVALID JUMPDEST PUSH1 0x20 MUL PUSH1 0x20 ADD ADD DUP2 DUP2 MSTORE POP POP DUP1 DUP1 PUSH1 0x1 ADD SWAP2 POP POP PUSH2 0xB4 JUMP JUMPDEST POP PUSH1 0x0 PUSH2 0x100 DUP3 DUP7 PUSH2 0x151 JUMP JUMPDEST EQ ISZERO PUSH2 0x145 JUMPI PUSH32 0x3F3CFDB26FB5F9F1786AB4F1A1F9CD4C0B5E726CBDFC26E495261731AAD44E39 PUSH1 0x40 MLOAD PUSH2 0x133 SWAP1 PUSH2 0x1068 JUMP JUMPDEST PUSH1 0x40 MLOAD DUP1 SWAP2 SUB SWAP1 LOG1 PUSH1 0x1 SWAP2 POP POP PUSH2 0x14B JUMP JUMPDEST PUSH1 0x0 SWAP2 POP POP JUMPDEST SWAP3 SWAP2 POP POP JUMP JUMPDEST PUSH1 0x0 DUP1 PUSH32 0x30644E72E131A029B85045B68181585D2833E84879B9709143E1F593F0000001 SWAP1 POP PUSH2 0x17F PUSH2 0xC95 JUMP JUMPDEST PUSH2 0x187 PUSH2 0x2C3 JUMP JUMPDEST SWAP1 POP DUP1 PUSH1 0x80 ADD MLOAD MLOAD PUSH1 0x1 DUP7 MLOAD ADD EQ PUSH2 0x19E JUMPI PUSH1 0x0 DUP1 REVERT JUMPDEST PUSH2 0x1A6 PUSH2 0xCDC JUMP JUMPDEST PUSH1 0x40 MLOAD DUP1 PUSH1 0x40 ADD PUSH1 0x40 MSTORE DUP1 PUSH1 0x0 DUP2 MSTORE PUSH1 0x20 ADD PUSH1 0x0 DUP2 MSTORE POP SWAP1 POP PUSH1 0x0 DUP1 SWAP1 POP JUMPDEST DUP7 MLOAD DUP2 LT ISZERO PUSH2 0x23C JUMPI DUP4 DUP8 DUP3 DUP2 MLOAD DUP2 LT PUSH2 0x1DB JUMPI INVALID JUMPDEST PUSH1 0x20 MUL PUSH1 0x20 ADD ADD MLOAD LT PUSH2 0x1ED JUMPI PUSH1 0x0 DUP1 REVERT JUMPDEST PUSH2 0x22D DUP3 PUSH2 0x228 DUP6 PUSH1 0x80 ADD MLOAD PUSH1 0x1 DUP6 ADD DUP2 MLOAD DUP2 LT PUSH2 0x207 JUMPI INVALID JUMPDEST PUSH1 0x20 MUL PUSH1 0x20 ADD ADD MLOAD DUP11 DUP6 DUP2 MLOAD DUP2 LT PUSH2 0x21B JUMPI INVALID JUMPDEST PUSH1 0x20 MUL PUSH1 0x20 ADD ADD MLOAD PUSH2 0x6B6 JUMP JUMPDEST PUSH2 0x74A JUMP JUMPDEST SWAP2 POP DUP1 DUP1 PUSH1 0x1 ADD SWAP2 POP POP PUSH2 0x1C5 JUMP JUMPDEST POP PUSH2 0x25F DUP2 DUP4 PUSH1 0x80 ADD MLOAD PUSH1 0x0 DUP2 MLOAD DUP2 LT PUSH2 0x252 JUMPI INVALID JUMPDEST PUSH1 0x20 MUL PUSH1 0x20 ADD ADD MLOAD PUSH2 0x74A JUMP JUMPDEST SWAP1 POP PUSH2 0x2A5 DUP6 PUSH1 0x0 ADD MLOAD DUP7 PUSH1 0x20 ADD MLOAD PUSH2 0x277 DUP5 PUSH2 0x7FD JUMP JUMPDEST DUP6 PUSH1 0x40 ADD MLOAD PUSH2 0x289 DUP11 PUSH1 0x40 ADD MLOAD PUSH2 0x7FD JUMP JUMPDEST DUP8 PUSH1 0x60 ADD MLOAD PUSH2 0x29B DUP10 PUSH1 0x0 ADD MLOAD PUSH2 0x7FD JUMP JUMPDEST DUP10 PUSH1 0x20 ADD MLOAD PUSH2 0x897 JUMP JUMPDEST PUSH2 0x2B5 JUMPI PUSH1 0x1 SWAP4 POP POP POP POP PUSH2 0x2BD JUMP JUMPDEST PUSH1 0x0 SWAP4 POP POP POP POP JUMPDEST SWAP3 SWAP2 POP POP JUMP JUMPDEST PUSH2 0x2CB PUSH2 0xC95 JUMP JUMPDEST PUSH1 0x40 MLOAD DUP1 PUSH1 0x40 ADD PUSH1 0x40 MSTORE DUP1 PUSH32 0x1936C240636390DC823E3A728E94B208EB53C6756D81DA57EC3425E05D43AC10 DUP2 MSTORE PUSH1 0x20 ADD PUSH32 0x2D70FF78E8216BF29D58923A686D9738278B8CE2FD822E197C85B09286D15566 DUP2 MSTORE POP DUP2 PUSH1 0x0 ADD DUP2 SWAP1 MSTORE POP PUSH1 0x40 MLOAD DUP1 PUSH1 0x40 ADD PUSH1 0x40 MSTORE DUP1 PUSH1 0x40 MLOAD DUP1 PUSH1 0x40 ADD PUSH1 0x40 MSTORE DUP1 PUSH32 0x2B4DAF047ABE2E7F0B311118C1B963B63695DC0D769CEA78849604434DE055BF DUP2 MSTORE PUSH1 0x20 ADD PUSH32 0x29C13ECB6F33DBC4B3B8A02E2E255511CE4C26A8A2F299EFCC94CAF2DE4FCE00 DUP2 MSTORE POP DUP2 MSTORE PUSH1 0x20 ADD PUSH1 0x40 MLOAD DUP1 PUSH1 0x40 ADD PUSH1 0x40 MSTORE DUP1 PUSH32 0x1DA9020008DF7F549751F8A251AF3B2DC4A2AD3E0870DE54ACAEDD9FC1B47E17 DUP2 MSTORE PUSH1 0x20 ADD PUSH32 0x25EA0D7E2B29DE431B86A943DB30DBF4D98F68DF9CA8A9628D14D1591E817D90 DUP2 MSTORE POP DUP2 MSTORE POP DUP2 PUSH1 0x20 ADD DUP2 SWAP1 MSTORE POP PUSH1 0x40 MLOAD DUP1 PUSH1 0x40 ADD PUSH1 0x40 MSTORE DUP1 PUSH1 0x40 MLOAD DUP1 PUSH1 0x40 ADD PUSH1 0x40 MSTORE DUP1 PUSH32 0x11016E22AE045444F50FB80F246EC486C7E02AF09132CD38C4FCF484983E4F2 DUP2 MSTORE PUSH1 0x20 ADD PUSH31 0xE83C788C2878D1D5EBA3ED49B0D81E4C0487DEDC3E4D1C2BAAB5833785B62F DUP2 MSTORE POP DUP2 MSTORE PUSH1 0x20 ADD PUSH1 0x40 MLOAD DUP1 PUSH1 0x40 ADD PUSH1 0x40 MSTORE DUP1 PUSH32 0x5EB89E741ED5B5D611CEBF92D1ED02CD6F3311089F0D400DF7D9CED5A48FD41 DUP2 MSTORE PUSH1 0x20 ADD PUSH32 0x132A90A3B0D369CCD66E2A5BA04A935E44D8AD5DCA93A76BBA592A578130A911 DUP2 MSTORE POP DUP2 MSTORE POP DUP2 PUSH1 0x40 ADD DUP2 SWAP1 MSTORE POP PUSH1 0x40 MLOAD DUP1 PUSH1 0x40 ADD PUSH1 0x40 MSTORE DUP1 PUSH1 0x40 MLOAD DUP1 PUSH1 0x40 ADD PUSH1 0x40 MSTORE DUP1 PUSH32 0x65F6A3323A2ABFFD621FC263F348EB914904B68D5897729AE34A6B9D33F0852 DUP2 MSTORE PUSH1 0x20 ADD PUSH32 0xC3B60F59D3BD50328A04C0FF6D979199685D0526F89F6AC29D6174CE24707A2 DUP2 MSTORE POP DUP2 MSTORE PUSH1 0x20 ADD PUSH1 0x40 MLOAD DUP1 PUSH1 0x40 ADD PUSH1 0x40 MSTORE DUP1 PUSH32 0x26E7EBCE2B44EFEF6B6315938E33F0A8ECC82DBAD635C9EFA681ED85BBB59982 DUP2 MSTORE PUSH1 0x20 ADD PUSH32 0x12E0F3721230A0F38F6C9913048D5230FD2615EF3FF7F6EE4B20DFE0BDEA1A86 DUP2 MSTORE POP DUP2 MSTORE POP DUP2 PUSH1 0x60 ADD DUP2 SWAP1 MSTORE POP PUSH1 0x2 PUSH8 0xFFFFFFFFFFFFFFFF DUP2 GT DUP1 ISZERO PUSH2 0x58E JUMPI PUSH1 0x0 DUP1 REVERT JUMPDEST POP PUSH1 0x40 MLOAD SWAP1 DUP1 DUP3 MSTORE DUP1 PUSH1 0x20 MUL PUSH1 0x20 ADD DUP3 ADD PUSH1 0x40 MSTORE DUP1 ISZERO PUSH2 0x5C8 JUMPI DUP2 PUSH1 0x20 ADD JUMPDEST PUSH2 0x5B5 PUSH2 0xCDC JUMP JUMPDEST DUP2 MSTORE PUSH1 0x20 ADD SWAP1 PUSH1 0x1 SWAP1 SUB SWAP1 DUP2 PUSH2 0x5AD JUMPI SWAP1 POP JUMPDEST POP DUP2 PUSH1 0x80 ADD DUP2 SWAP1 MSTORE POP PUSH1 0x40 MLOAD DUP1 PUSH1 0x40 ADD PUSH1 0x40 MSTORE DUP1 PUSH32 0x7F481A1CB7CEA7EB760D12AA4D1B61AB95A34D63783E68B0BBC9A524C388135 DUP2 MSTORE PUSH1 0x20 ADD PUSH32 0xB723281A130974C10D5BC702601B943CFB263864AFD4CE5C4C0E61D8619E132 DUP2 MSTORE POP DUP2 PUSH1 0x80 ADD MLOAD PUSH1 0x0 DUP2 MLOAD DUP2 LT PUSH2 0x637 JUMPI INVALID JUMPDEST PUSH1 0x20 MUL PUSH1 0x20 ADD ADD DUP2 SWAP1 MSTORE POP PUSH1 0x40 MLOAD DUP1 PUSH1 0x40 ADD PUSH1 0x40 MSTORE DUP1 PUSH32 0x1F86C8F7610CCED630B8F704DEF6D0756A43C68D012B98B3801C6B5649009849 DUP2 MSTORE PUSH1 0x20 ADD PUSH32 0x2B6B7F92AB24620816BDE4842E27FA635932DCECDAB53C799403F5BCA9718914 DUP2 MSTORE POP DUP2 PUSH1 0x80 ADD MLOAD PUSH1 0x1 DUP2 MLOAD DUP2 LT PUSH2 0x6A8 JUMPI INVALID JUMPDEST PUSH1 0x20 MUL PUSH1 0x20 ADD ADD DUP2 SWAP1 MSTORE POP SWAP1 JUMP JUMPDEST PUSH2 0x6BE PUSH2 0xCDC JUMP JUMPDEST PUSH2 0x6C6 PUSH2 0xCF6 JUMP JUMPDEST DUP4 PUSH1 0x0 ADD MLOAD DUP2 PUSH1 0x0 PUSH1 0x3 DUP2 LT PUSH2 0x6D8 JUMPI INVALID JUMPDEST PUSH1 0x20 MUL ADD DUP2 DUP2 MSTORE POP POP DUP4 PUSH1 0x20 ADD MLOAD DUP2 PUSH1 0x1 PUSH1 0x3 DUP2 LT PUSH2 0x6F3 JUMPI INVALID JUMPDEST PUSH1 0x20 MUL ADD DUP2 DUP2 MSTORE POP POP DUP3 DUP2 PUSH1 0x2 PUSH1 0x3 DUP2 LT PUSH2 0x70A JUMPI INVALID JUMPDEST PUSH1 0x20 MUL ADD DUP2 DUP2 MSTORE POP POP PUSH1 0x0 PUSH1 0x60 DUP4 PUSH1 0x80 DUP5 PUSH1 0x0 PUSH1 0x7 PUSH2 0x7D0 GAS SUB CALL SWAP1 POP DUP1 PUSH1 0x0 DUP2 EQ PUSH2 0x735 JUMPI PUSH2 0x737 JUMP JUMPDEST INVALID JUMPDEST POP DUP1 PUSH2 0x742 JUMPI PUSH1 0x0 DUP1 REVERT JUMPDEST POP POP SWAP3 SWAP2 POP POP JUMP JUMPDEST PUSH2 0x752 PUSH2 0xCDC JUMP JUMPDEST PUSH2 0x75A PUSH2 0xD18 JUMP JUMPDEST DUP4 PUSH1 0x0 ADD MLOAD DUP2 PUSH1 0x0 PUSH1 0x4 DUP2 LT PUSH2 0x76C JUMPI INVALID JUMPDEST PUSH1 0x20 MUL ADD DUP2 DUP2 MSTORE POP POP DUP4 PUSH1 0x20 ADD MLOAD DUP2 PUSH1 0x1 PUSH1 0x4 DUP2 LT PUSH2 0x787 JUMPI INVALID JUMPDEST PUSH1 0x20 MUL ADD DUP2 DUP2 MSTORE POP POP DUP3 PUSH1 0x0 ADD MLOAD DUP2 PUSH1 0x2 PUSH1 0x4 DUP2 LT PUSH2 0x7A2 JUMPI INVALID JUMPDEST PUSH1 0x20 MUL ADD DUP2 DUP2 MSTORE POP POP DUP3 PUSH1 0x20 ADD MLOAD DUP2 PUSH1 0x3 PUSH1 0x4 DUP2 LT PUSH2 0x7BD JUMPI INVALID JUMPDEST PUSH1 0x20 MUL ADD DUP2 DUP2 MSTORE POP POP PUSH1 0x0 PUSH1 0x60 DUP4 PUSH1 0xC0 DUP5 PUSH1 0x0 PUSH1 0x6 PUSH2 0x7D0 GAS SUB CALL SWAP1 POP DUP1 PUSH1 0x0 DUP2 EQ PUSH2 0x7E8 JUMPI PUSH2 0x7EA JUMP JUMPDEST INVALID JUMPDEST POP DUP1 PUSH2 0x7F5 JUMPI PUSH1 0x0 DUP1 REVERT JUMPDEST POP POP SWAP3 SWAP2 POP POP JUMP JUMPDEST PUSH2 0x805 PUSH2 0xCDC JUMP JUMPDEST PUSH1 0x0 PUSH32 0x30644E72E131A029B85045B68181585D97816A916871CA8D3C208C16D87CFD47 SWAP1 POP PUSH1 0x0 DUP4 PUSH1 0x0 ADD MLOAD EQ DUP1 ISZERO PUSH2 0x842 JUMPI POP PUSH1 0x0 DUP4 PUSH1 0x20 ADD MLOAD EQ JUMPDEST ISZERO PUSH2 0x866 JUMPI PUSH1 0x40 MLOAD DUP1 PUSH1 0x40 ADD PUSH1 0x40 MSTORE DUP1 PUSH1 0x0 DUP2 MSTORE PUSH1 0x20 ADD PUSH1 0x0 DUP2 MSTORE POP SWAP2 POP POP PUSH2 0x892 JUMP JUMPDEST PUSH1 0x40 MLOAD DUP1 PUSH1 0x40 ADD PUSH1 0x40 MSTORE DUP1 DUP5 PUSH1 0x0 ADD MLOAD DUP2 MSTORE PUSH1 0x20 ADD DUP3 DUP6 PUSH1 0x20 ADD MLOAD DUP2 PUSH2 0x888 JUMPI INVALID JUMPDEST MOD DUP4 SUB DUP2 MSTORE POP SWAP2 POP POP JUMPDEST SWAP2 SWAP1 POP JUMP JUMPDEST PUSH1 0x0 PUSH1 0x60 PUSH1 0x4 PUSH8 0xFFFFFFFFFFFFFFFF DUP2 GT DUP1 ISZERO PUSH2 0x8B3 JUMPI PUSH1 0x0 DUP1 REVERT JUMPDEST POP PUSH1 0x40 MLOAD SWAP1 DUP1 DUP3 MSTORE DUP1 PUSH1 0x20 MUL PUSH1 0x20 ADD DUP3 ADD PUSH1 0x40 MSTORE DUP1 ISZERO PUSH2 0x8ED JUMPI DUP2 PUSH1 0x20 ADD JUMPDEST PUSH2 0x8DA PUSH2 0xCDC JUMP JUMPDEST DUP2 MSTORE PUSH1 0x20 ADD SWAP1 PUSH1 0x1 SWAP1 SUB SWAP1 DUP2 PUSH2 0x8D2 JUMPI SWAP1 POP JUMPDEST POP SWAP1 POP PUSH1 0x60 PUSH1 0x4 PUSH8 0xFFFFFFFFFFFFFFFF DUP2 GT DUP1 ISZERO PUSH2 0x90A JUMPI PUSH1 0x0 DUP1 REVERT JUMPDEST POP PUSH1 0x40 MLOAD SWAP1 DUP1 DUP3 MSTORE DUP1 PUSH1 0x20 MUL PUSH1 0x20 ADD DUP3 ADD PUSH1 0x40 MSTORE DUP1 ISZERO PUSH2 0x944 JUMPI DUP2 PUSH1 0x20 ADD JUMPDEST PUSH2 0x931 PUSH2 0xD3A JUMP JUMPDEST DUP2 MSTORE PUSH1 0x20 ADD SWAP1 PUSH1 0x1 SWAP1 SUB SWAP1 DUP2 PUSH2 0x929 JUMPI SWAP1 POP JUMPDEST POP SWAP1 POP DUP11 DUP3 PUSH1 0x0 DUP2 MLOAD DUP2 LT PUSH2 0x955 JUMPI INVALID JUMPDEST PUSH1 0x20 MUL PUSH1 0x20 ADD ADD DUP2 SWAP1 MSTORE POP DUP9 DUP3 PUSH1 0x1 DUP2 MLOAD DUP2 LT PUSH2 0x96E JUMPI INVALID JUMPDEST PUSH1 0x20 MUL PUSH1 0x20 ADD ADD DUP2 SWAP1 MSTORE POP DUP7 DUP3 PUSH1 0x2 DUP2 MLOAD DUP2 LT PUSH2 0x987 JUMPI INVALID JUMPDEST PUSH1 0x20 MUL PUSH1 0x20 ADD ADD DUP2 SWAP1 MSTORE POP DUP5 DUP3 PUSH1 0x3 DUP2 MLOAD DUP2 LT PUSH2 0x9A0 JUMPI INVALID JUMPDEST PUSH1 0x20 MUL PUSH1 0x20 ADD ADD DUP2 SWAP1 MSTORE POP DUP10 DUP2 PUSH1 0x0 DUP2 MLOAD DUP2 LT PUSH2 0x9B9 JUMPI INVALID JUMPDEST PUSH1 0x20 MUL PUSH1 0x20 ADD ADD DUP2 SWAP1 MSTORE POP DUP8 DUP2 PUSH1 0x1 DUP2 MLOAD DUP2 LT PUSH2 0x9D2 JUMPI INVALID JUMPDEST PUSH1 0x20 MUL PUSH1 0x20 ADD ADD DUP2 SWAP1 MSTORE POP DUP6 DUP2 PUSH1 0x2 DUP2 MLOAD DUP2 LT PUSH2 0x9EB JUMPI INVALID JUMPDEST PUSH1 0x20 MUL PUSH1 0x20 ADD ADD DUP2 SWAP1 MSTORE POP DUP4 DUP2 PUSH1 0x3 DUP2 MLOAD DUP2 LT PUSH2 0xA04 JUMPI INVALID JUMPDEST PUSH1 0x20 MUL PUSH1 0x20 ADD ADD DUP2 SWAP1 MSTORE POP PUSH2 0xA19 DUP3 DUP3 PUSH2 0xA29 JUMP JUMPDEST SWAP3 POP POP POP SWAP9 SWAP8 POP POP POP POP POP POP POP POP JUMP JUMPDEST PUSH1 0x0 DUP2 MLOAD DUP4 MLOAD EQ PUSH2 0xA39 JUMPI PUSH1 0x0 DUP1 REVERT JUMPDEST PUSH1 0x0 DUP4 MLOAD SWAP1 POP PUSH1 0x0 PUSH1 0x6 DUP3 MUL SWAP1 POP PUSH1 0x60 DUP2 PUSH8 0xFFFFFFFFFFFFFFFF DUP2 GT DUP1 ISZERO PUSH2 0xA60 JUMPI PUSH1 0x0 DUP1 REVERT JUMPDEST POP PUSH1 0x40 MLOAD SWAP1 DUP1 DUP3 MSTORE DUP1 PUSH1 0x20 MUL PUSH1 0x20 ADD DUP3 ADD PUSH1 0x40 MSTORE DUP1 ISZERO PUSH2 0xA8F JUMPI DUP2 PUSH1 0x20 ADD PUSH1 0x20 DUP3 MUL DUP1 CALLDATASIZE DUP4 CALLDATACOPY DUP1 DUP3 ADD SWAP2 POP POP SWAP1 POP JUMPDEST POP SWAP1 POP PUSH1 0x0 DUP1 SWAP1 POP JUMPDEST DUP4 DUP2 LT ISZERO PUSH2 0xC35 JUMPI DUP7 DUP2 DUP2 MLOAD DUP2 LT PUSH2 0xAAC JUMPI INVALID JUMPDEST PUSH1 0x20 MUL PUSH1 0x20 ADD ADD MLOAD PUSH1 0x0 ADD MLOAD DUP3 PUSH1 0x0 PUSH1 0x6 DUP5 MUL ADD DUP2 MLOAD DUP2 LT PUSH2 0xACA JUMPI INVALID JUMPDEST PUSH1 0x20 MUL PUSH1 0x20 ADD ADD DUP2 DUP2 MSTORE POP POP DUP7 DUP2 DUP2 MLOAD DUP2 LT PUSH2 0xAE2 JUMPI INVALID JUMPDEST PUSH1 0x20 MUL PUSH1 0x20 ADD ADD MLOAD PUSH1 0x20 ADD MLOAD DUP3 PUSH1 0x1 PUSH1 0x6 DUP5 MUL ADD DUP2 MLOAD DUP2 LT PUSH2 0xB00 JUMPI INVALID JUMPDEST PUSH1 0x20 MUL PUSH1 0x20 ADD ADD DUP2 DUP2 MSTORE POP POP DUP6 DUP2 DUP2 MLOAD DUP2 LT PUSH2 0xB18 JUMPI INVALID JUMPDEST PUSH1 0x20 MUL PUSH1 0x20 ADD ADD MLOAD PUSH1 0x0 ADD MLOAD PUSH1 0x0 PUSH1 0x2 DUP2 LT PUSH2 0xB30 JUMPI INVALID JUMPDEST PUSH1 0x20 MUL ADD MLOAD DUP3 PUSH1 0x2 PUSH1 0x6 DUP5 MUL ADD DUP2 MLOAD DUP2 LT PUSH2 0xB47 JUMPI INVALID JUMPDEST PUSH1 0x20 MUL PUSH1 0x20 ADD ADD DUP2 DUP2 MSTORE POP POP DUP6 DUP2 DUP2 MLOAD DUP2 LT PUSH2 0xB5F JUMPI INVALID JUMPDEST PUSH1 0x20 MUL PUSH1 0x20 ADD ADD MLOAD PUSH1 0x0 ADD MLOAD PUSH1 0x1 PUSH1 0x2 DUP2 LT PUSH2 0xB77 JUMPI INVALID JUMPDEST PUSH1 0x20 MUL ADD MLOAD DUP3 PUSH1 0x3 PUSH1 0x6 DUP5 MUL ADD DUP2 MLOAD DUP2 LT PUSH2 0xB8E JUMPI INVALID JUMPDEST PUSH1 0x20 MUL PUSH1 0x20 ADD ADD DUP2 DUP2 MSTORE POP POP DUP6 DUP2 DUP2 MLOAD DUP2 LT PUSH2 0xBA6 JUMPI INVALID JUMPDEST PUSH1 0x20 MUL PUSH1 0x20 ADD ADD MLOAD PUSH1 0x20 ADD MLOAD PUSH1 0x0 PUSH1 0x2 DUP2 LT PUSH2 0xBBE JUMPI INVALID JUMPDEST PUSH1 0x20 MUL ADD MLOAD DUP3 PUSH1 0x4 PUSH1 0x6 DUP5 MUL ADD DUP2 MLOAD DUP2 LT PUSH2 0xBD5 JUMPI INVALID JUMPDEST PUSH1 0x20 MUL PUSH1 0x20 ADD ADD DUP2 DUP2 MSTORE POP POP DUP6 DUP2 DUP2 MLOAD DUP2 LT PUSH2 0xBED JUMPI INVALID JUMPDEST PUSH1 0x20 MUL PUSH1 0x20 ADD ADD MLOAD PUSH1 0x20 ADD MLOAD PUSH1 0x1 PUSH1 0x2 DUP2 LT PUSH2 0xC05 JUMPI INVALID JUMPDEST PUSH1 0x20 MUL ADD MLOAD DUP3 PUSH1 0x5 PUSH1 0x6 DUP5 MUL ADD DUP2 MLOAD DUP2 LT PUSH2 0xC1C JUMPI INVALID JUMPDEST PUSH1 0x20 MUL PUSH1 0x20 ADD ADD DUP2 DUP2 MSTORE POP POP DUP1 DUP1 PUSH1 0x1 ADD SWAP2 POP POP PUSH2 0xA98 JUMP JUMPDEST POP PUSH2 0xC3E PUSH2 0xD60 JUMP JUMPDEST PUSH1 0x0 PUSH1 0x20 DUP3 PUSH1 0x20 DUP7 MUL PUSH1 0x20 DUP7 ADD PUSH1 0x0 PUSH1 0x8 PUSH2 0x7D0 GAS SUB CALL SWAP1 POP DUP1 PUSH1 0x0 DUP2 EQ PUSH2 0xC65 JUMPI PUSH2 0xC67 JUMP JUMPDEST INVALID JUMPDEST POP DUP1 PUSH2 0xC72 JUMPI PUSH1 0x0 DUP1 REVERT JUMPDEST PUSH1 0x0 DUP3 PUSH1 0x0 PUSH1 0x1 DUP2 LT PUSH2 0xC81 JUMPI INVALID JUMPDEST PUSH1 0x20 MUL ADD MLOAD EQ ISZERO SWAP6 POP POP POP POP POP POP SWAP3 SWAP2 POP POP JUMP JUMPDEST PUSH1 0x40 MLOAD DUP1 PUSH1 0xA0 ADD PUSH1 0x40 MSTORE DUP1 PUSH2 0xCA8 PUSH2 0xCDC JUMP JUMPDEST DUP2 MSTORE PUSH1 0x20 ADD PUSH2 0xCB5 PUSH2 0xD3A JUMP JUMPDEST DUP2 MSTORE PUSH1 0x20 ADD PUSH2 0xCC2 PUSH2 0xD3A JUMP JUMPDEST DUP2 MSTORE PUSH1 0x20 ADD PUSH2 0xCCF PUSH2 0xD3A JUMP JUMPDEST DUP2 MSTORE PUSH1 0x20 ADD PUSH1 0x60 DUP2 MSTORE POP SWAP1 JUMP JUMPDEST PUSH1 0x40 MLOAD DUP1 PUSH1 0x40 ADD PUSH1 0x40 MSTORE DUP1 PUSH1 0x0 DUP2 MSTORE PUSH1 0x20 ADD PUSH1 0x0 DUP2 MSTORE POP SWAP1 JUMP JUMPDEST PUSH1 0x40 MLOAD DUP1 PUSH1 0x60 ADD PUSH1 0x40 MSTORE DUP1 PUSH1 0x3 SWAP1 PUSH1 0x20 DUP3 MUL DUP1 CALLDATASIZE DUP4 CALLDATACOPY DUP1 DUP3 ADD SWAP2 POP POP SWAP1 POP POP SWAP1 JUMP JUMPDEST PUSH1 0x40 MLOAD DUP1 PUSH1 0x80 ADD PUSH1 0x40 MSTORE DUP1 PUSH1 0x4 SWAP1 PUSH1 0x20 DUP3 MUL DUP1 CALLDATASIZE DUP4 CALLDATACOPY DUP1 DUP3 ADD SWAP2 POP POP SWAP1 POP POP SWAP1 JUMP JUMPDEST PUSH1 0x40 MLOAD DUP1 PUSH1 0x40 ADD PUSH1 0x40 MSTORE DUP1 PUSH2 0xD4D PUSH2 0xD82 JUMP JUMPDEST DUP2 MSTORE PUSH1 0x20 ADD PUSH2 0xD5A PUSH2 0xD82 JUMP JUMPDEST DUP2 MSTORE POP SWAP1 JUMP JUMPDEST PUSH1 0x40 MLOAD DUP1 PUSH1 0x20 ADD PUSH1 0x40 MSTORE DUP1 PUSH1 0x1 SWAP1 PUSH1 0x20 DUP3 MUL DUP1 CALLDATASIZE DUP4 CALLDATACOPY DUP1 DUP3 ADD SWAP2 POP POP SWAP1 POP POP SWAP1 JUMP JUMPDEST PUSH1 0x40 MLOAD DUP1 PUSH1 0x40 ADD PUSH1 0x40 MSTORE DUP1 PUSH1 0x2 SWAP1 PUSH1 0x20 DUP3 MUL DUP1 CALLDATASIZE DUP4 CALLDATACOPY DUP1 DUP3 ADD SWAP2 POP POP SWAP1 POP POP SWAP1 JUMP JUMPDEST PUSH1 0x0 DUP3 PUSH1 0x1F DUP4 ADD SLT PUSH2 0xDB5 JUMPI PUSH1 0x0 DUP1 REVERT JUMPDEST PUSH1 0x1 PUSH2 0xDC8 PUSH2 0xDC3 DUP3 PUSH2 0x10B5 JUMP JUMPDEST PUSH2 0x1088 JUMP JUMPDEST SWAP2 POP DUP2 DUP4 DUP6 PUSH1 0x20 DUP5 MUL DUP3 ADD GT ISZERO PUSH2 0xDDE JUMPI PUSH1 0x0 DUP1 REVERT JUMPDEST PUSH1 0x0 JUMPDEST DUP4 DUP2 LT ISZERO PUSH2 0xE0E JUMPI DUP2 PUSH2 0xDF4 DUP9 DUP3 PUSH2 0xF85 JUMP JUMPDEST DUP5 MSTORE PUSH1 0x20 DUP5 ADD SWAP4 POP PUSH1 0x20 DUP4 ADD SWAP3 POP POP PUSH1 0x1 DUP2 ADD SWAP1 POP PUSH2 0xDE1 JUMP JUMPDEST POP POP POP POP SWAP3 SWAP2 POP POP JUMP JUMPDEST PUSH1 0x0 DUP3 PUSH1 0x1F DUP4 ADD SLT PUSH2 0xE29 JUMPI PUSH1 0x0 DUP1 REVERT JUMPDEST PUSH1 0x2 PUSH2 0xE3C PUSH2 0xE37 DUP3 PUSH2 0x10D7 JUMP JUMPDEST PUSH2 0x1088 JUMP JUMPDEST SWAP2 POP DUP2 DUP4 DUP6 PUSH1 0x20 DUP5 MUL DUP3 ADD GT ISZERO PUSH2 0xE52 JUMPI PUSH1 0x0 DUP1 REVERT JUMPDEST PUSH1 0x0 JUMPDEST DUP4 DUP2 LT ISZERO PUSH2 0xE82 JUMPI DUP2 PUSH2 0xE68 DUP9 DUP3 PUSH2 0xF85 JUMP JUMPDEST DUP5 MSTORE PUSH1 0x20 DUP5 ADD SWAP4 POP PUSH1 0x20 DUP4 ADD SWAP3 POP POP PUSH1 0x1 DUP2 ADD SWAP1 POP PUSH2 0xE55 JUMP JUMPDEST POP POP POP POP SWAP3 SWAP2 POP POP JUMP JUMPDEST PUSH1 0x0 PUSH1 0x40 DUP3 DUP5 SUB SLT ISZERO PUSH2 0xE9E JUMPI PUSH1 0x0 DUP1 REVERT JUMPDEST PUSH2 0xEA8 PUSH1 0x40 PUSH2 0x1088 JUMP JUMPDEST SWAP1 POP PUSH1 0x0 PUSH2 0xEB8 DUP5 DUP3 DUP6 ADD PUSH2 0xF85 JUMP JUMPDEST PUSH1 0x0 DUP4 ADD MSTORE POP PUSH1 0x20 PUSH2 0xECC DUP5 DUP3 DUP6 ADD PUSH2 0xF85 JUMP JUMPDEST PUSH1 0x20 DUP4 ADD MSTORE POP SWAP3 SWAP2 POP POP JUMP JUMPDEST PUSH1 0x0 PUSH1 0x80 DUP3 DUP5 SUB SLT ISZERO PUSH2 0xEEA JUMPI PUSH1 0x0 DUP1 REVERT JUMPDEST PUSH2 0xEF4 PUSH1 0x40 PUSH2 0x1088 JUMP JUMPDEST SWAP1 POP PUSH1 0x0 PUSH2 0xF04 DUP5 DUP3 DUP6 ADD PUSH2 0xE18 JUMP JUMPDEST PUSH1 0x0 DUP4 ADD MSTORE POP PUSH1 0x40 PUSH2 0xF18 DUP5 DUP3 DUP6 ADD PUSH2 0xE18 JUMP JUMPDEST PUSH1 0x20 DUP4 ADD MSTORE POP SWAP3 SWAP2 POP POP JUMP JUMPDEST PUSH1 0x0 PUSH2 0x100 DUP3 DUP5 SUB SLT ISZERO PUSH2 0xF37 JUMPI PUSH1 0x0 DUP1 REVERT JUMPDEST PUSH2 0xF41 PUSH1 0x60 PUSH2 0x1088 JUMP JUMPDEST SWAP1 POP PUSH1 0x0 PUSH2 0xF51 DUP5 DUP3 DUP6 ADD PUSH2 0xE8C JUMP JUMPDEST PUSH1 0x0 DUP4 ADD MSTORE POP PUSH1 0x40 PUSH2 0xF65 DUP5 DUP3 DUP6 ADD PUSH2 0xED8 JUMP JUMPDEST PUSH1 0x20 DUP4 ADD MSTORE POP PUSH1 0xC0 PUSH2 0xF79 DUP5 DUP3 DUP6 ADD PUSH2 0xE8C JUMP JUMPDEST PUSH1 0x40 DUP4 ADD MSTORE POP SWAP3 SWAP2 POP POP JUMP JUMPDEST PUSH1 0x0 DUP2 CALLDATALOAD SWAP1 POP PUSH2 0xF94 DUP2 PUSH2 0x1120 JUMP JUMPDEST SWAP3 SWAP2 POP POP JUMP JUMPDEST PUSH1 0x0 DUP1 PUSH2 0x120 DUP4 DUP6 SUB SLT ISZERO PUSH2 0xFAE JUMPI PUSH1 0x0 DUP1 REVERT JUMPDEST PUSH1 0x0 PUSH2 0xFBC DUP6 DUP3 DUP7 ADD PUSH2 0xF24 JUMP JUMPDEST SWAP3 POP POP PUSH2 0x100 PUSH2 0xFCE DUP6 DUP3 DUP7 ADD PUSH2 0xDA4 JUMP JUMPDEST SWAP2 POP POP SWAP3 POP SWAP3 SWAP1 POP JUMP JUMPDEST PUSH2 0xFE1 DUP2 PUSH2 0x110A JUMP JUMPDEST DUP3 MSTORE POP POP JUMP JUMPDEST PUSH1 0x0 PUSH2 0xFF4 PUSH1 0x22 DUP4 PUSH2 0x10F9 JUMP JUMPDEST SWAP2 POP PUSH32 0x5472616E73616374696F6E207375636365737366756C6C792076657269666965 PUSH1 0x0 DUP4 ADD MSTORE PUSH32 0x642E000000000000000000000000000000000000000000000000000000000000 PUSH1 0x20 DUP4 ADD MSTORE PUSH1 0x40 DUP3 ADD SWAP1 POP SWAP2 SWAP1 POP JUMP JUMPDEST PUSH1 0x0 PUSH1 0x20 DUP3 ADD SWAP1 POP PUSH2 0x1062 PUSH1 0x0 DUP4 ADD DUP5 PUSH2 0xFD8 JUMP JUMPDEST SWAP3 SWAP2 POP POP JUMP JUMPDEST PUSH1 0x0 PUSH1 0x20 DUP3 ADD SWAP1 POP DUP2 DUP2 SUB PUSH1 0x0 DUP4 ADD MSTORE PUSH2 0x1081 DUP2 PUSH2 0xFE7 JUMP JUMPDEST SWAP1 POP SWAP2 SWAP1 POP JUMP JUMPDEST PUSH1 0x0 PUSH1 0x40 MLOAD SWAP1 POP DUP2 DUP2 ADD DUP2 DUP2 LT PUSH8 0xFFFFFFFFFFFFFFFF DUP3 GT OR ISZERO PUSH2 0x10AB JUMPI PUSH1 0x0 DUP1 REVERT JUMPDEST DUP1 PUSH1 0x40 MSTORE POP SWAP2 SWAP1 POP JUMP JUMPDEST PUSH1 0x0 PUSH8 0xFFFFFFFFFFFFFFFF DUP3 GT ISZERO PUSH2 0x10CC JUMPI PUSH1 0x0 DUP1 REVERT JUMPDEST PUSH1 0x20 DUP3 MUL SWAP1 POP SWAP2 SWAP1 POP JUMP JUMPDEST PUSH1 0x0 PUSH8 0xFFFFFFFFFFFFFFFF DUP3 GT ISZERO PUSH2 0x10EE JUMPI PUSH1 0x0 DUP1 REVERT JUMPDEST PUSH1 0x20 DUP3 MUL SWAP1 POP SWAP2 SWAP1 POP JUMP JUMPDEST PUSH1 0x0 DUP3 DUP3 MSTORE PUSH1 0x20 DUP3 ADD SWAP1 POP SWAP3 SWAP2 POP POP JUMP JUMPDEST PUSH1 0x0 DUP2 ISZERO ISZERO SWAP1 POP SWAP2 SWAP1 POP JUMP JUMPDEST PUSH1 0x0 DUP2 SWAP1 POP SWAP2 SWAP1 POP JUMP JUMPDEST PUSH2 0x1129 DUP2 PUSH2 0x1116 JUMP JUMPDEST DUP2 EQ PUSH2 0x1134 JUMPI PUSH1 0x0 DUP1 REVERT JUMPDEST POP JUMP INVALID LOG2 PUSH5 0x6970667358 0x22 SLT KECCAK256 SWAP8 0xA6 0xD0 CODECOPY 0xED EQ 0xCA PUSH22 0xC38DCBD7D9C1032CED9A98DF4D89965180F7EA568768 0xB5 0xD4 PUSH5 0x736F6C6343 STOP MOD EXP STOP CALLER "},"gasEstimates":{"creation":{"codeDepositCost":"892200","executionCost":"929","totalCost":"893129"},"external":{"verifyTx(((uint256,uint256),(uint256[2],uint256[2]),(uint256,uint256)),uint256[1])":"infinite"},"internal":{"verify(uint256[] memory,struct Verifier.Proof memory)":"infinite","verifyingKey()":"infinite"}},"methodIdentifiers":{"verifyTx(((uint256,uint256),(uint256[2],uint256[2]),(uint256,uint256)),uint256[1])":"f48d7729"}},"storageLayout":{"storage":[],"types":null},"userdoc":{"methods":{}}}